:020000040000fa
:080000000001040000000000f3
:020000040000fa
:04000800ce03000023
:020000040000fa
:04000c00c801000027
:020000040000fa
:04001000ce0100001d
:020000040000fa
:04001400d401000013
:020000040000fa
:04001800da01000009
:020000040000fa
:04001c00ce0300000f
:020000040000fa
:04002000ce0300000b
:020000040000fa
:04002400ce03000007
:020000040000fa
:04002800ce03000003
:020000040000fa
:04002c00ce030000ff
:020000040000fa
:04003000ce030000fb
:020000040000fa
:040034009602000030
:020000040000fa
:04003800ce030000f3
:020000040000fa
:04003c00ce030000ef
:020000040000fa
:04004000be020000fc
:020000040000fa
:04004400f4020000c2
:020000040000fa
:04004800ce030000e3
:020000040000fa
:04004c00ce030000df
:020000040000fa
:04005000ce030000db
:020000040000fa
:04005400f8010000af
:020000040000fa
:04005800ce030000d3
:020000040000fa
:04005c00ce030000cf
:020000040000fa
:04006000ce030000cb
:020000040000fa
:04006400ce030000c7
:020000040000fa
:04006800ce030000c3
:020000040000fa
:04006c00ce030000bf
:020000040000fa
:04007000ce030000bb
:020000040000fa
:04007400ce030000b7
:020000040000fa
:04007800ce030000b3
:020000040000fa
:04007c00ce030000af
:020000040000fa
:04008000ce030000ab
:020000040000fa
:04008400ce030000a7
:020000040000fa
:04008800640300000d
:020000040000fa
:04008c00ce0300009f
:020000040000fa
:04009000ce0300009b
:020000040000fa
:04009400ce03000097
:020000040000fa
:04009800ce03000093
:020000040000fa
:04009c00ce0300008f
:020000040000fa
:0400a000ce0300008b
:020000040000fa
:0400a400ce03000087
:020000040000fa
:0400a800ce03000083
:020000040000fa
:0400ac00ce0300007f
:020000040000fa
:0400b000ce0300007b
:020000040000fa
:0400b400ce03000077
:020000040000fa
:0400b800ce03000073
:020000040000fa
:0400bc00ce0300006f
:020000040000fa
:0400c000ce0300006b
:020000040000fa
:0400c4002a0300000b
:020000040000fa
:0400c800ce03000063
:020000040000fa
:0400cc00ce0300005f
:020000040000fa
:0400d000ce0300005b
:020000040000fa
:0400d400ce03000057
:020000040000fa
:0400d800ce03000053
:020000040000fa
:04010800ce03000022
:020000040000fa
:04010c00e00100000e
:020000040000fa
:04011000e601000004
:020000040000fa
:04011400ec010000fa
:020000040000fa
:04011800f2010000f0
:020000040000fa
:04011c00ce0300000e
:020000040000fa
:04012000ce0300000a
:020000040000fa
:04012400ce03000006
:020000040000fa
:04012800ce03000002
:020000040000fa
:04012c00ce030000fe
:020000040000fa
:04013000ce030000fa
:020000040000fa
:04013400960200002f
:020000040000fa
:04013800ce030000f2
:020000040000fa
:04013c00ce030000ee
:020000040000fa
:04014000be020000fb
:020000040000fa
:04014400f4020000c1
:020000040000fa
:04014800ce030000e2
:020000040000fa
:04014c00ce030000de
:020000040000fa
:04015000ce030000da
:020000040000fa
:04015400f8010000ae
:020000040000fa
:04015800ce030000d2
:020000040000fa
:04015c00ce030000ce
:020000040000fa
:04016000ce030000ca
:020000040000fa
:04016400ce030000c6
:020000040000fa
:04016800ce030000c2
:020000040000fa
:04016c00ce030000be
:020000040000fa
:04017000ce030000ba
:020000040000fa
:04017400ce030000b6
:020000040000fa
:04017800ce030000b2
:020000040000fa
:04017c00ce030000ae
:020000040000fa
:04018000ce030000aa
:020000040000fa
:04018400ce030000a6
:020000040000fa
:04018800640300000c
:020000040000fa
:04018c00ce0300009e
:020000040000fa
:04019000ce0300009a
:020000040000fa
:04019400ce03000096
:020000040000fa
:04019800ce03000092
:020000040000fa
:04019c00ce0300008e
:020000040000fa
:0401a000ce0300008a
:020000040000fa
:0401a400ce03000086
:020000040000fa
:0401a800ce03000082
:020000040000fa
:0401ac00ce0300007e
:020000040000fa
:0401b000ce0300007a
:020000040000fa
:0401b400ce03000076
:020000040000fa
:0401b800ce03000072
:020000040000fa
:0401bc00ce0300006e
:020000040000fa
:0401c000ce0300006a
:020000040000fa
:0401c4002a0300000a
:020000040000fa
:0401c800ce03000062
:020000040000fa
:0401cc00ce0300005e
:020000040000fa
:0401d000ce0300005a
:020000040000fa
:0401d400ce03000056
:020000040000fa
:0401d800ce03000052
:020000040000fa
:10020000cfba20006efc20000e0188000000000024
:10021000000020000000e000020032000001200089
:100220002002880014000700f20107000000e0002f
:1002300003003a00e03921000100200002003700ed
:100240000000200001002000810f7000010032003a
:1002500014000700000020000000e000020032004f
:1002600000000200000000006e1402000000000008
:100270000040da000000fe004440a90040052000d4
:100280000000e0000300320000002000a001880010
:100290004440a800000006008a1f78008b1f7800e9
:1002a0000000060091018800800478000000eb0047
:1002b0001a003700e284440032a0b4009905ba0065
:1002c000e284440032a0b4009906ba00e2844400fb
:1002d00032a0b4000006eb00476fde00fd07b2005d
:1002e000636ce10003003a00ebff07000000eb0045
:1002f0000a003700606ce10004003a00005deb008a
:100300008b05e900fdff3e00040037006168e10055
:10031000010032000086eb000b00070019c7ba008d
:100320001905ba000e04e00003003a000a00e000dc
:10033000e0ff3a0000000600fe07b2009e018800c0
:100340008a047800f5ff3700395dba008b05e900b3
:100350000c003200295dba008b05e900080032006c
:100360000c00e00003003a00e284440032a0b40034
:10037000f5ff370019ddba008b05e900faff3a00f6
:100380008904e800e184440032a0b40000000600c3
:100390000000fa008020a900ffff37000000fa00eb
:1003a0008060a900ffff37000000fa008040a9002c
:1003b000ffff37000000fa008080a900ffff370030
:1003c0000000fa008020a900ffff37000000fa00bb
:1003d0008060a900ffff37000000fa008040a900fc
:1003e000ffff37000000fa008080a900ffff370000
:1003f0003600f800809fbe00829fbe00849fbe0032
:10040000869fbe000000fa008560a9004150800070
:1004100010148000008040000000d100405088008f
:10042000e05880000000e0001c003200e05880002e
:100430000000e900e0588800905180006300b90096
:1004400000007800800078002014800000804000c8
:100450004200de0080508800a05180006300b90097
:100460000000780080007800301480000080400098
:100470004200de0090508800b05180006300b90057
:100480000000780080007800401480000080400068
:100490004200de00a05088000600370020148000d3
:1004a00080508800301480009050880040148000f4
:1004b000a0508800b05080008000780000148000b8
:1004c000008040000000d100b0508800f050800053
:1004d0000000e000040032000080e900e20f50005c
:1004e00005003e0002003700d421ef00080037006d
:1004f0008201070006003700f0508000e40f500032
:10050000020036001e2aef00010037000000000044
:100510000080fa004f03be004f02be004f01be0034
:100520004f00be003600f90000400600809fbe006c
:10053000821f78000000fa008460a900c15080008a
:10054000f257800010c0b300828f500001003100cc
:100550000040eb008100e800c15088000004e0008a
:10056000020032008c60a9001e2aef000080fa0011
:100570004f0178004f00be00004006003600f80032
:10058000809fbe00829fbe00849fbe00869fbe00eb
:100590000000fa000621ef0084c0a900f05080009e
:1005a000e30f500009003a00605080000000e800ae
:1005b0006050880060508000e50f5000010034005a
:1005c0000c2aef0060508000550307000080fa00fd
:1005d0004f03be004f02be004f01be004f00be00e1
:1005e0003600f900004006003600f800809fbe008b
:1005f000829fbe00849fbe00869fbe000000fa005e
:1006000013e1a9000a21ef000621ef0084c0a90030
:1006100084e0a9008ce0a900182aef00f0508000c7
:10062000e30f500004003a00c05180006050880081
:10063000605080003a0307000080fa004f03be00bc
:100640004f02be004f01be004f00be003600f90051
:1006500000400600809fbe000000fa0088e0a9006c
:10066000205180000000e8002051880021518000c6
:10067000700c2000808f500002003600242aef000a
:10068000668aa800105180000000e8001051880020
:1006900010518000f30f500002003600222aef00b4
:1006a000666aa800f0508000e20f500003003a0094
:1006b0001051800069004000105188000080fa004d
:1006c0004f00be00004006003600f800809fbe00cc
:1006d000829fbe00849fbe00869fbe00881f780058
:1006e0000000fa008700a90006003700c859800002
:1006f000b000070000407800004c78000800e800d7
:10070000c0598800900007000004e000f7ff3a009d
:10071000c05980006300500070568800b0598000b6
:100720008000e900c0598000808f50000500310032
:10073000a0598000c0598800b05980000000e9002d
:1007400070568800605680009040780040c2b30028
:1007500080cf500007003a0070568000904078002b
:1007600030c2b30080cf500004003a00d60aa8007f
:1007700002003700a0598000c05988000080fa00ac
:100780004f0478004f03be004f02be004f01be0071
:100790004f00be003600f900004006000040da00bd
:1007a0000000fe001e00fc00881f78008a1f7800f1
:1007b0004400f800080f2000280288000004900080
:1007c00010059000a000900030019000c001900042
:1007d0000300ca000280ca000030cb001a00cd001e
:1007e0004604c3000100ca004604c0001e04c00045
:1007f0000605c0000100cd0021009800050d78001d
:10080000eaba9700052578004400f9004f05780002
:100810004f047800000006000e00fc00801f7800e6
:10082000200090000008eb004f007800801f780047
:10083000100090000018eb000018eb000008eb001f
:100840004f007800000006001500fc004400f8008e
:10085000020f200022028800910078003000ca00b8
:100860003080ca000000cb002080ca000000cb000e
:100870003100cd004000ca000000cb000000cb00da
:100880000010cb003100cd001180cc004400f900f5
:1008900000000600001020001802b6000000e90069
:1008a0004f00de000000060017e2a9008f00a9003b
:1008b0008f20a9008700a9008720a900000006005a
:1008c0008700a900e70060008720a90000017800e8
:1008d00083ff2f000207b2000405800084816100bd
:1008e00083817000e800600003058800c308de0013
:1008f000f3f82f00e180600004058000848161002e
:10090000c808dd00830171000008b20003058800fb
:10091000f2ef2f004700de00730480000301610046
:1009200061006000028170004900dd0072048800ef
:10093000f1df2f007404800084806000810070006b
:100940007104880000000600c01080006140600053
:1009500000000600f2108800b0108800c110880066
:1009600000000600b1108000e6806000e68f5000b5
:100970000c003a00030037001922ab00feff3a00da
:10098000d1108800b00078000100e000faff3a00c2
:10099000000006001922ab00feff3a008100fb00b8
:1009a000d1108800b04078000104e000f9ff3a005f
:1009b00000000600b010800066006000e60f5000e6
:1009c00002003a00e010800000000600e010800005
:1009d000f00fb20000000600b1108000e680600059
:1009e000e68f500001003200f00fb200d0108800f6
:1009f00000000600000005006022b800060220008a
:100a00000000d0008180d2000482d2008582d20012
:100a10000000a0000202520083825a00030031004d
:100a20000202420083824a000000a1000603e9009e
:100a3000f3ff3a0000000600800178000200370052
:100a4000815978000201e9000200e000fcff3a0051
:040a5000000006009c
:020000040000fa
:100a5400000000006400000000000000e803000043
:100a6400f4010000641900000a000000f401000011
:100a7400f40100008813000000000000ffff0000e4
:100a8400000000001400000000000000007d0000d1
:100a940000000000ffff0000000000001e00000036
:100aa4000200000014000000640000008403000041
:100ab400000000001400000052540000444d0000e7
:100ac400002b000024520000544400004d23000079
:100ad4001b860000002b0000244f00004b23000065
:100ae4004c080000002d00002445000001230000f4
:080af400d36a000000000000bd
:020000040000fa
:100afc000600fa00889fbe0080538000e50f50006e
:100b0c000d003e00a0b62000505c880013002000b1
:100b1c0042a3200021a1200040b9200008080700b2
:100b2c001300200062a3200041a1200000ba200085
:100b3c000308070002003700c0b42000505c880096
:100b4c001300200022a3200001a1200080b8200067
:100b5c00fb070700b0508000cf00de000080400093
:100b6c000080d1008000780090538000008040000d
:100b7c0060518800915180006051800000805000cd
:100b8c006101b900405180005151800002004000c9
:100b9c0083804800405188005151880040518000aa
:100bac00515180004309dd004d04de000804710042
:100bbc00cd8cde00080078009053880060518000d6
:100bcc0060538800905180007053880080538000df
:100bdc00e50f500004003e00d0508000e017b0003c
:100bec001007980003003700d0508000c016b000ea
:100bfc0010079800805380008000eb0092002000ca
:100c0c0003002000820f5000838f5800a4013e0087
:100c1c000060010009003700320037005b0037002c
:100c2c0084003700be003700e70037000e013700a4
:100c3c00140137004a0137005001370091518000f0
:100c4c0060518000808f500098013d0080538000df
:100c5c000108800000014000a0a32000000041001a
:100c6c00010878000021ef00b8010700000f7800a0
:100c7c001e0090009e007800808f50000200310012
:100c8c009e009000010f78001e0090001e001000c6
:100c9c007008880030002000c051880013e1a800c3
:100cac008ce0a800e05080006f0160001e0078000e
:100cbc006600b900800078000201410060a42000a9
:100ccc000000410001087800e05080000000e800be
:100cdc00e0508800805380000000e80080538800ba
:100cec0089013700b151800060518000808f500025
:100cfc007001340080538000010880000001400026
:100d0c00a0a3200000004100010878000021ef00a2
:100d1c008e010700000f78001e0090009e007800e6
:100d2c00808f5000020031001e019000020f7800ed
:100d3c001e0090001e00100070088800400020006b
:100d4c00c051880013e1a8008ce0a800e05080009e
:100d5c006f0160001e0078006600b900800078000a
:100d6c000201410060a4200000004100010878004d
:100d7c00e05080000000e800e050880080538000c4
:100d8c000000e800805388005f013700a15180000b
:100d9c0060518000808f500048013d0080538000de
:100dac000108800000014000a0a3200000004100c9
:100dbc00010878000021ef0064010700000f7800a3
:100dcc001e0090009e007800808f500002003100c1
:100ddc009e009000010f78001e0090001e00100075
:100dec007008880050002000c051880013e1a80052
:100dfc008ce0a800e05080006f0160001e007800bd
:100e0c006600b900800078000201410060a4200057
:100e1c000000410001087800e05080000000e8006c
:100e2c00e0508800805380000000e8008053880068
:100e3c00350137009151800060518000808f500047
:100e4c002001340080538000010880000001400024
:100e5c00a0a3200000004100010878000021ef0051
:100e6c003a010700000f78001e0090009e007800e9
:100e7c00808f5000020031001e019000020f78009c
:100e8c001e0090001e00100070088800382aef0029
:100e9c0013e1a8008ce0a800e05080006f01600016
:100eac001e0078006600b900800078000201410045
:100ebc0060a420000000410001087800e050800090
:100ecc000000e800e0508800805380000000e8003b
:100edc008053880030538000620060000000e00006
:100eec00fa00320060002000805388000621ef00d9
:100efc001e007800000040006008880084c0a90033
:100f0c008cc0a800a1e2a900500420005015880054
:100f1c008040200010158800a1e2a800fa003700dc
:100f2c00b151800060518000808f5000e9003d007d
:100f3c00805380000108800000014000a0a3200025
:100f4c0000004100010878000021ef00ff000700bd
:100f5c00000f78001e0090009e007800808f5000db
:100f6c00020031009e009000010f78001e009000de
:100f7c001e0010007008880010002000c05188006e
:100f8c0013e1a8008ce0a800e05080006f01600025
:100f9c001e0078006600b900800078000201410054
:100fac0060a420000000410001087800e05080009f
:100fbc000000e800e0508800805380000000e8004a
:100fcc0080538800d0003700a15180006051800010
:100fdc00808f5000c10034008053800001088000d5
:100fec0000014000a0a3200000004100010878008f
:100ffc000021ef00d5000700000f78001e009000c4
:10100c009e007800808f5000020031001e0190007d
:10101c00020f78001e0090001e001000700888005f
:10102c0020002000c051880013e1a8008ce0a8002b
:10103c00e05080006f0160001e0078006600b9006f
:10104c00800078000201410060a4200000004100f3
:10105c0001087800e05080000000e800e0508800b3
:10106c00702aef00a800370060508000e20f50009b
:10107c009c003a00805380000000e80080538800f8
:10108c00a10037009151800060518000808f50008a
:10109c0096003d00e05080006f0060000108800069
:1010ac000001400060a4200000004100010878000d
:1010bc000021ef00e05080006f00600080004000d5
:1010cc0060a420000080400090007800e050800078
:1010dc000000e9006f0060000001400060a42000e7
:1010ec0000004100100078000080400020079800ac
:1010fc00ae009000b0aa2a000008b8004208de003a
:10110c00600888002e009000c200de001e009000d7
:10111c00808f5000020031000e21ef0005003700d7
:10112c002e009000c200de001e00900000805000d7
:10113c0070088800e05080000000e800e050880053
:10114c0040002000c051880013e1a8008ce0a800ea
:10115c00805380000000e800805388006a0037004c
:10116c0060508000e50f500062003a008053800010
:10117c000000e80080538800630037009151800024
:10118c0060518000808f50005c003400e050800083
:10119c006f006000010880000001400060a4200086
:1011ac0000004100010878000021ef00e0508000b1
:1011bc006f0060008000400060a4200000804000b0
:1011cc0090007800e05080000000e9006f006000a3
:1011dc000001400060a420000000410010007800d5
:1011ec000080400020079800ae009000b0aa2a00b2
:1011fc000008b8004208de00600888002e0090004d
:10120c00c200de001e009000808f500002003100f2
:10121c000e21ef00050037002e009000c200de000a
:10122c001e0090000080500070088800e050800084
:10123c000000e800e050880010002000c051880039
:10124c0013e1a8008ce0a800600020008053880007
:10125c0030538000620060000000e00029003a007a
:10126c004000200080538800382aef00600880007e
:10127c008000d1001e009000008050007008880093
:10128c008cc0a900a1e2a900501c200050158800b8
:10129c000041200010158800a1e2a8001a003700b8
:1012ac00702aef000000000017003700000000005b
:1012bc00150037000000000013003700000000008c
:1012cc0011003700000000000f0037000000000084
:1012dc000d003700000000000b003700000000007c
:1012ec000900370000000000070037000000000074
:1012fc00050037000000000003003700000000006c
:10130c0001003700000000004f04be000080fa000e
:10131c00000006000200fa00000f78001e007800a2
:10132c008000400000b120000080400010007800d8
:10133c00a00e88001e007800705088008054800039
:10134c00e05888000080fa00000006000a00fa004d
:10135c006000b80010079800210798000000eb000f
:10136c00000f78000d0037001e0078008000400050
:10137c00a0a3200000804000100078008000eb004b
:10138c001e019000ae0190000200400083804800d6
:10139c0010079800210798001e0fe8001e00780027
:1013ac00e50f5000f0ff36001e019000ae019000da
:1013bc003207980043079800c20020003e029000bc
:1013cc00ce0290001100090042aad800000f78004c
:1013dc001e0078000080fa00000006000600fa00eb
:1013ec00666aa900ca01a800f0508000e20f500004
:1013fc0025013200e20f500005003e000000e00025
:10140c0008003200e10f500016013200af01370026
:10141c00e30f500007003200e40f5000620032006e
:10142c00aa013700d621ef00d821ef00da21ef0016
:10143c00ae013700725180008351800090548000bf
:10144c008000eb000001510081815900a054800004
:10145c008000eb00009ab90004027800028bb900fe
:10146c0086027800050242000013b80016079800a7
:10147c0027079800ae03900007024200240798004b
:10148c00823e20001e029000ae0290001100090066
:10149c0042aad800f0588800f0588000fe0f500087
:1014ac0002003600e0012000f0588800f05880005f
:1014bc000000e00002003a001a2aef001e0037007c
:1014cc00905480006101b8007051800081518000ff
:1014dc00800f5100818f590016003100f0588000a8
:1014ec006101b8001059800021598000009ab900a0
:1014fc0004027800028bb9008602780005024200d3
:10150c000013b8001607980027079800ae03900048
:10151c000702420024079800821620001e02900049
:10152c00ae0290001100090042aad800d0508800e9
:10153c00010037001a2aef00e05780002103200039
:10154c008080400000598000808f500003003100e3
:10155c00305980000000e80030598800e0578000c6
:10156c00e1fc2f008080400000598000808f5000eb
:10157c0003003600305980000000e9003059880023
:10158c0030598000f40f500002003400662aa80085
:10159c00262bef0030598000f40f400002003d0074
:1015ac00662aa900262bef00222bef00242bef003c
:1015bc000000eb00000f78000d0037001e007800d3
:1015cc008000400060a420000080400010007800e3
:1015dc006101b800105980002159800002004000c0
:1015ec008380480010598800215988001e0fe8009c
:1015fc001e007800ef0f5000f0ff360010598000ed
:10160c0021598000cd0add004300de00008072000d
:10161c00c308de0010598800215988001059800039
:10162c00215980000001780006002000271c2000b2
:10163c0016079800270798001e029000ae02900033
:10164c001100090042aad8004300de0000598800ae
:10165c00d6578000005980008000eb0082072000e4
:10166c000289b900020178006002b9008401780097
:10167c0003014100830720000302b80014079800ff
:10168c0025079800ae029000050141002207980042
:10169c001e019000ae019000110009004699d8007f
:1016ac008000eb007051880081518800315380001c
:1016bc0000022000008060000000e00032003200d8
:1016cc0071548000405080000088b9000000780000
:1016dc0030558800705180008151800000007800e6
:1016ec0020558800e0a920002bfc07001055800035
:1016fc000000e00001003d00a22aef00115580001f
:10170c0070eb2700808f50000500340040b520009e
:10171c00b00e880070eb27001055880015003700bc
:10172c0010558000cf80de0042b520000289b90040
:10173c00020178006002b9008401780003014100c5
:10174c0043b520000302b800140798002507980041
:10175c00ae029000050141002207980072eb2700b1
:10176c001e029000ae0290001100090042aad8009f
:10177c00b00e8800b00e8000c00e8800b00e800045
:10178c00d00e8800d90037003153800000042000af
:10179c00008060000000e000d1003200b00e80003c
:1017ac0040598800405080008000eb0042b520007a
:1017bc000289b900020178006002b9008401780046
:1017cc000301410043b520000300b80001014100b2
:1017dc0082007800f23f20000300200083fc070009
:1017ec000000780050598800415980005059800001
:1017fc00808f50000e0032004159800050598000fb
:10180c00808f500003003100405980000000e80038
:10181c00405988004159800050598000808f5000f9
:10182c0003003600405980000000e9004059880050
:10183c004159800040b52000808f500002003600d6
:10184c0040b520004059880040598000b00e8800f7
:10185c0040598000c00e880040598000d00e88008e
:10186c00a2003700a4000700b05080000080d10017
:10187c006051880020002000f0508800262bef00db
:10188c00662aa9009900370000518000e10f500032
:10189c0020003200e10f500005003900e20f50002b
:1018ac0035003200e30f50003e0032008400370058
:1018bc00a0538000b00e8800b00e8000c00e8800cf
:1018cc00b00e8000d00e8800c05380000000e900ec
:1018dc00c0538800c05380000000e0000c003a00a8
:1018ec00605080000000e80060508800605080006c
:1018fc00e50f5000010034000c2aef00605080000e
:10190c0084fe0700005180000000e80000518800b0
:10191c006d003700b0538000b00e8800b00e800010
:10192c00c00e8800b00e8000d00e8800d05380000e
:10193c000000e900d0538800d05380000000e00084
:10194c000c003a00605080000000e80060508800f5
:10195c0060508000e50f5000010034000c2aef00ad
:10196c00605080006bfe0700005180000000e80012
:10197c0000518800540037002c2bef00e0538000fe
:10198c0070598800105480008059880010548000d1
:10199c0090598800005180000000e8000051880038
:1019ac0049003700615980000254800010c0b30018
:1019bc00828f5000010031000040eb008100e800f4
:1019cc00615988000004e00009003200300020005a
:1019dc00f050880013e1a9008ce0a9008460a900f4
:1019ec008c60a800005480006059880033003700d8
:1019fc006159800030548000800278001100090089
:101a0c008580d8008000fd000000e00003003a0053
:101a1c00705980000000e8007059880070598000ef
:101a2c00b00e8800b00e8000c00e8800b00e800092
:101a3c00d00e88006159800040548000000378006b
:101a4c00110009008680d8008000fd000000e00035
:101a5c0006003a00805980000000e9008059880097
:101a6c00905980000000e90090598800815980004d
:101a7c0010c0b3000100e000010034000040eb0096
:101a8c008100e900815988000004e0000b0032005d
:101a9c009059800080598800605080000000e80058
:101aac006050880060508000e50f50000100340049
:101abc000c2aef006050800016fe07000200370071
:101acc00202aef000000000008003700f0508000d2
:101adc00e40f5000040036001e2aef00030037000c
:101aec00000000000100370000000000ca01a9003e
:101afc000080fa00000006000400fa0010079800ad
:101b0c0061298400e0568000808f50000200310073
:101b1c0060298400e056880061298400f05680001a
:101b2c00808f50000200310060298400f05688003c
:101b3c006129840020578000808f50000200310002
:101b4c006029840020578800612984003057800068
:101b5c00808f5000020031006029840030578800cb
:101b6c0061298400c0578000808f50000200310032
:101b7c0060298400c05788008129840000578000a8
:101b8c00808f5000020031008029840000578800ab
:101b9c008129840010578000808f50000200310092
:101bac0080298400105788009129840040578000b8
:101bbc00808f500002003600902984004057880026
:101bcc00a129840040578000808f50000200310012
:101bdc00a029840040578800b12984005057800008
:101bec00808f500002003600b029840050578800c6
:101bfc00c129840050578000808f500002003100b2
:101c0c00c029840050578800d12984006057800077
:101c1c00808f500002003600d02984006057880065
:101c2c00e129840060578000808f50000200310051
:101c3c00e029840060578800412a84009057800076
:101c4c00808f500002003100402a84009057880099
:101c5c00412a840040558000808f500002003100e2
:101c6c00402a840040558800412a84005055800049
:101c7c00808f500002003100402a840050558800ab
:101c8c00012a840070578000808f500002003100c0
:101c9c00002a840070578800212a84008057800015
:101cac00808f500002003100202a84008057880069
:101cbc00612a8400a0578000808f50000200310000
:101ccc00602a8400a0578800812a8400b0578000c5
:101cdc00808f500002003100802a8400b0578800a9
:101cec00912a8400d0578000808f5000020036006b
:101cfc00902a8400d0578800a12a8400d0578000f5
:101d0c00808f500002003100a02a8400d057880038
:101d1c00b12a8400e0578000808f5000020036000a
:101d2c00b02a8400e0578800c12a8400e057800064
:101d3c00808f500002003100c02a8400e0578800d8
:101d4c00d12a8400f0578000808f500002003600aa
:101d5c00d02a8400f0578800e12a8400f0578000d4
:101d6c00808f500002003100e02a8400f057880078
:101d7c00e05680008000eb0042b520000289b900db
:101d8c00020178006002b90084017800030141006f
:101d9c0043b520000300b800010141008200780027
:101dac00420620000300200010fb07000000780012
:101dbc00a0538800f05680008000eb0042b5200054
:101dcc000289b900020178006002b9008401780030
:101ddc000301410043b520000300b800010141009c
:101dec00820078004206200003002000fffa070062
:101dfc0000007800b0538800005780006a00b900da
:101e0c0000007800c0538800105780006a00b900a9
:101e1c0000007800d0538800205780008000eb0031
:101e2c0042b520000289b900020178006002b900b5
:101e3c00840178000301410043b520000300b80081
:101e4c0001014100820078004206200003002000be
:101e5c00e6fa070000007800e05388003057800055
:101e6c008000eb0042b520000289b9000201780025
:101e7c006002b900840178000301410043b52000e1
:101e8c000300b800010141008200780042062000e6
:101e9c0003002000d5fa070000007800f0538800fa
:101eac00405780006a00b900000078000054880098
:101ebc00d05780006101b800505780008000eb00c3
:101ecc00009ab90004027800028bb90086027800ef
:101edc00050242000010b8000102420084007800a4
:101eec000001be0000d4200031002000bffa070022
:101efc000000780010548800d05780006101b800b1
:101f0c00605780008000eb00009ab9000402780052
:101f1c00028bb90086027800050242000010b8005e
:101f2c0001024200840078000001be0000d42000b1
:101f3c0031002000adfa0700000078002054880022
:101f4c001154800020548000808f50000300310019
:101f5c00205480000080e800105488000154800058
:101f6c0012548000205480000000510000017800c1
:101f7c00110009008280d8000000e800405488005d
:101f8c00f1538000e0538000808f5000030031003b
:101f9c00e05380000080e800f0538800015480007a
:101fac00f2538000e05380000000510000017800e3
:101fbc00110009008280d8000000e800305488002d
:101fcc00d05780006101b8004318dd00cd10de0051
:101fdc00810070004310dd000001be0000002000f5
:101fec008197260081fa07005054880061548800bc
:101ffc00705780004a00de000000e8007054880032
:10200c008057800080548800a0578000905488002e
:10201c00b0578000a054880070578000b0548800de
:10202c0090578000c054880040558000d0548800e0
:10203c0050558000e054880020b42000f0548800f3
:10204c00a0ff200000558800e1a9200080a92000f5
:10205c00faf907000000eb00000f780007003700ca
:10206c001e00780080004000a0ff2000008040008f
:10207c008000eb00010878001e0fe8001e007800bd
:10208c00e20f5000f6ff3e00f0508000e10f5000d0
:10209c0012003a00c05780008000eb0072eb270062
:1020ac000289b900020178006002b900840178004d
:1020bc000301410073eb27000300b800010141004c
:1020cc0082007800420620000300200047fa070037
:1020dc00000078001055880001003700a22aef009c
:1020ec000000eb00000f78001a003700d05780007a
:1020fc006101b800505780008000eb00009ab900d5
:10210c0004027800028bb9008602780005024200b6
:10211c000010b80001024200840078004309dd0081
:10212c00cd01de00830171004301dd0000002000c1
:10213c00819726002dfa0700800078001e00780099
:10214c000001400060a4200000004100010878005c
:10215c001e0fe8001e007800ef0f5000e3ff360062
:10216c000080fa00000006000000fa00cbf907001e
:10217c00b0f22f00cff9070000f02d00c0568800f8
:10218c00d0752f00d0568800d1568000c0568000e4
:10219c00f2002000ecf90700d60aa900d60aa90023
:1021ac00a0598000c0598800a05980006056880052
:1021bc00a0598000705688000000eb000080fa00e7
:1021cc00000006000200fa000000eb00000f78008f
:1021dc00b2f907001e0078000080fa00000006002b
:1021ec002000fa00b0568000610060000000e000a2
:1021fc0002003a000080eb0014013700705680009a
:10220c008000780060568000008050008000e8005c
:10221c00605680000081eb000e010700805688009c
:10222c00805680004800de00905688008156800061
:10223c00f00f200000806000a056880070568000cf
:10224c000080e800104078000080fb0050079800e8
:10225c00705680000000e800104078000080fb0001
:10226c0060079800605680000080e8006056880087
:10227c0090568000de009000808f5000e7003a00fe
:10228c00a0568000ee009000808f5000e3003a00d2
:10229c00a05980000000e800104078000080fb008e
:1022ac00d1042000810f500071003200d1042000b5
:1022bc00810f500004003c00c1042000810f50002d
:1022cc009e003200ce003700d1062000810f500056
:1022dc000400320031072000810f500090003200c2
:1022ec00c700370060568000700798006056800069
:1022fc0064004000605688007e0090001000be0014
:10230c00000078001007980060568000900078005c
:10231c0031079800605680000080e8006056880005
:10232c000080eb0080568800b0c2b30000579800c4
:10233c0040c2b300105798000040eb0020579800a3
:10234c0081568000700047000101780021002000b8
:10235c00c00007008056880080568000000178007d
:10236c00be0090001e009000ba0007008056880046
:10237c007000470078f907000000000042f90700e0
:10238c000004e000fdff3a000b0037001e00900037
:10239c00104078000080fb009e0090008100e80057
:1023ac001107980089f907000000000036f90700b2
:1023bc000004e000fdff3a003e00900000f0a70092
:1023cc000000ea000000ea004f00de000040780048
:1023dc00be0090008100e900310798000004e00085
:1023ec00eaff3a0030c2b3000057980081568000d3
:1023fc0070004700010178001100200095000700d3
:10240c008056880080568000004078001057980055
:10241c00805680004800de0000407800205798006d
:10242c000000eb00400798000d003700f00047005b
:10243c004e00900000804000104078000080fb00af
:10244c0062f90700000000000ff907000004e0002b
:10245c00fdff3a004e0090000000e8004007980095
:10246c004e009000e20f5000f0ff36006b0037007a
:10247c006056800070079800605680006400400031
:10248c00605688007e0090001000be0000007800ae
:10249c002007980060568000900078003107980063
:1024ac00605680000080e80060568800615680000d
:1024bc00010f7800080037001e007800904078006b
:1024cc002e009000014878002e0090000000e800db
:1024dc00200798001e0fe8003e00900000f0a700b7
:1024ec000000ea000000ea004f00de000040780027
:1024fc00be0090008100e900310798000004e00064
:10250c00edff3a00d056280013f907000000000038
:10251c00ddf807000004e000fdff3a003f00370043
:10252c00305628000cf9070000000000d6f8070010
:10253c000004e000fdff3a00380037000080eb009b
:10254c0080568800b0c2b3000057980040c2b30058
:10255c001057980000c2b300205798000040eb00c1
:10256c00305798000040eb004057980000c1b30072
:10257c005057980030c2b3006057980081568000c5
:10258c007000470001017800710020003100070045
:10259c008056880080568000004078007057980064
:1025ac00805680004800de0000407800005f9800f4
:1025bc000000eb00400798000d003700f0004700ca
:1025cc004e00900000804000104078000080fb001e
:1025dc00fef8070000000000abf807000004e00064
:1025ec00fdff3a004e0090000000e8004007980004
:1025fc004e009000e80f5000f0ff36000700370047
:10260c0050572800d4f80700000000009ef807007f
:10261c000004e000fdff3a00000000000202200070
:10262c008000eb00c0aa200000f90700d60aa90020
:10263c00a0598000c0598800a059800060568800bd
:10264c00a0598000705688000000eb000080fa0052
:10265c00000006001000fa0050079800610798006f
:10266c007207980010002a003007980080002000a4
:10267c00400798000000eb00100798002500370079
:10268c005e009000104078000080fb00200798004e
:10269c005e0090000000e800500798000000eb007e
:1026ac00000f780014003700fe0090002e00900000
:1026bc000080680061006000004078000004e000c9
:1026cc00060032007e0090008000d1003e00900099
:1026dc000080680070079800030037007e009000af
:1026ec000000d100700798002e0090000000d1006f
:1026fc00200798001e0fe8004e0090009e00780006
:10270c00808f5000e8ff39001e0090000000e800a8
:10271c00100798009e0090006e009000808f500073
:10272c00d7ff39007e0090000080fa000000060000
:020000040000fa
:10273c001e0b000016000000000000000008000046
:10274c000802000000000000480b0000040000001c
:10275c0002000000060804000a000000080a00003d
:10276c006c00000000000000000b00001e000000c8
:10277c0002000000ffff0200000400000300000044
:10278c00000100000500ff00ff0006000012000021
:10279c00180009000021000024030000740a000046
:1027ac003800000000000000420b00000600000092
:1027bc0000000000fa0f00000600000000000000fe
:1027cc00dc0a00002400000002000000320032008d
:1027dc00006400006400190000370000e80350009a
:1027ec0000e803003075020000780000d0070200fa
:1027fc00003700000c00e800030f0000880b0000fd
:10280c00240000000200000002006a000b00ff0020
:10281c00d60fdc000f00000002006a000b00ff0066
:10282c00e20fe8000f00000002006a000b00ff003e
:10283c00ee0ff4000f0000004c0b00003c000000f9
:10284c00020000004b02960004de55004b02f6001d
:10285c00e03d02007a041e00663d0200f9ce5400f1
:10286c000e540e007a280000000000004405890078
:10287c000a253e004405c800ec840500080b4a00fc
:10288c004f840500d3d5810015811500b41c0000c0
:10289c0000000000d60f0000240000000000000023
:1028ac00ac0a00003000000000000000340b0000f7
:1028bc000e00000002000000ac0acb000aac0a00bb
:1028cc002d24450000230000000000000000000043
:020000040000fa
:1028dc000000fa00cda2a900cdc2a900d202a80026
:1028ec00d222a800d1a2a900d1c2a9001efe0700c5
:1028fc003e00070080b82000c200070040b920004d
:10290c00c000070000ba2000be0007001e2aef001e
:10291c0066caa80066aaa900664aa800010037008a
:10292c0000000000305080000000d10061406000c9
:10293c000080fb00610060004d00dd00811680000e
:10294c0001d0a1000100700080168800305080007a
:10295c004200de00614060000080fb00610060000e
:10296c004e00dd008116800001e0a1000100700026
:10297c008016880030508000680060000000e00085
:10298c0006003200f05080000000e00003003a0026
:10299c0010002000f0508800066aa900305080001a
:1029ac00700060000000e00004003200f050800075
:1029bc000000e000010032001e2aef0008fe0700b4
:1029cc0030538000680060000000e000010032001d
:1029dc0082fa070030538000700060000000e000b5
:1029ec00cfff32001c000700ceff37000000fa00ba
:1029fc00dc22ef0000fc2f00c0168800d022ef0074
:102a0c00d622ef00d202a800d222a8000001280092
:102a1c002008880000012000800888000621ef00b3
:102a2c0084c0a9008cc0a90011e1a80000012000fd
:102a3c00900888000a21ef0084e0a9008ce0a9002e
:102a4c0000012800f00888009000070075000700be
:102a5c000080fa00000006000200fa00668aa90055
:102a6c00a0168000610060000000e0000c003a003d
:102a7c001e007800610060000000e00008003a00d1
:102a8c00f05080000000e00005003a001e007800c5
:102a9c000000a000000f780010002000f05088000b
:102aac00a0168000620060000000e0000c003a00fc
:102abc001e007800620060000000e00008003a0090
:102acc00f05080000000e000050032001e0078008d
:102adc000010a000000f78001e2aef00202aef0043
:102aec001e007800610060000000e000070032006a
:102afc00a0168000610060000000e00003003200be
:102b0c001e0078000000a100000f78001e00780065
:102b1c00620060000000e00007003200a016800098
:102b2c00620060000000e000030032001e0078002c
:102b3c000010a100000f78000080fa0000000600d1
:102b4c00881f7800891f78008a1f78008b1f7800f7
:102b5c004400f8003400f8002005900008f02f0025
:102b6c000a40e10003003200480f2000aa0188004f
:102b7c0001003700080f2000280288000002900096
:102b8c00d00490008301e9000380080015000000c8
:102b9c00100490003103780030059000c0059000bf
:102bac00b80278009a00ca00048008000a000000ed
:102bbc005210c4009b80ca008707cd005290c400fd
:102bcc005290c500ba87cd005390c4008607cd0043
:102bdc009a00ca005290c500bb87cd000600ca00ff
:102bec000900c8003200cd003400f9004400f9009f
:102bfc00cf0578004f057800cf0478004f0478009b
:102c0c0000000600b0009000400190000000900011
:102c1c0000800800010000008018eb000019eb0098
:102c2c00000006000000fa00a842a900a802a900b2
:102c3c00a8c2a900a8e2a900a902a900a022ef003d
:102c4c00a002a900a022a900a042a800a062a9008d
:102c5c00a0a2a800a0c2a800a0e2a80000412000e9
:102c6c001015880090c0200020158800501c2000f2
:102c7c0050158800a622ef008560a9008d60a80081
:102c8c00a1e2a8000080fa00000006000000fa0093
:102c9c00d421ef00205c2000200e880070772000eb
:102cac00400e8800a0032000600e8800d021ef00a9
:102cbc00d621ef00d821ef00da21ef00c621ef007a
:102ccc0000002800000e880088e0a90090e0a80011
:082cdc000080fa000000060070
:020000040000fa
:0200000401f009
:04000000f7bf000046
:020000040000fa
:0200000401f009
:04000400ff7f00007a
:020000040000fa
:0200000401f009
:04000800ffff0000f6
:020000040000fa
:0200000401f009
:04001400ffff0000ea
:020000040000fa
:0200000401f009
:04001800ffff0000e6
:00000001FF
