:020000040000fa
:080000000001040000000000f3
:020000040000fa
:0400080026040000ca
:020000040000fa
:04000c00dc01000013
:020000040000fa
:04001000ec010000ff
:020000040000fa
:04001400fc010000eb
:020000040000fa
:040018000c020000d6
:020000040000fa
:04001c0026040000b6
:020000040000fa
:0400200026040000b2
:020000040000fa
:0400240026040000ae
:020000040000fa
:0400280026040000aa
:020000040000fa
:04002c0026040000a6
:020000040000fa
:0400300026040000a2
:020000040000fa
:04003400580300006d
:020000040000fa
:04003800260400009a
:020000040000fa
:04003c002604000096
:020000040000fa
:040040008003000039
:020000040000fa
:04004400b6030000ff
:020000040000fa
:04004800260400008a
:020000040000fa
:04004c007802000036
:020000040000fa
:040050001c0200008e
:020000040000fa
:04005400de020000c8
:020000040000fa
:04005800260400007a
:020000040000fa
:04005c002604000076
:020000040000fa
:040060002604000072
:020000040000fa
:04006400260400006e
:020000040000fa
:04006800260400006a
:020000040000fa
:04006c002604000066
:020000040000fa
:040070002604000062
:020000040000fa
:04007400260400005e
:020000040000fa
:04007800260400005a
:020000040000fa
:04007c002604000056
:020000040000fa
:040080002604000052
:020000040000fa
:04008400260400004e
:020000040000fa
:04008800260400004a
:020000040000fa
:04008c002604000046
:020000040000fa
:040090002604000042
:020000040000fa
:04009400260400003e
:020000040000fa
:04009800260400003a
:020000040000fa
:04009c002604000036
:020000040000fa
:0400a0002604000032
:020000040000fa
:0400a400260400002e
:020000040000fa
:0400a800260400002a
:020000040000fa
:0400ac002604000026
:020000040000fa
:0400b0002604000022
:020000040000fa
:0400b400260400001e
:020000040000fa
:0400b800260400001a
:020000040000fa
:0400bc002604000016
:020000040000fa
:0400c0002604000012
:020000040000fa
:0400c400ec03000049
:020000040000fa
:0400c800260400000a
:020000040000fa
:0400cc002604000006
:020000040000fa
:0400d0002604000002
:020000040000fa
:0400d40026040000fe
:020000040000fa
:0400d80026040000fa
:020000040000fa
:0401080026040000c9
:020000040000fa
:04010c00dc01000012
:020000040000fa
:04011000ec010000fe
:020000040000fa
:04011400fc010000ea
:020000040000fa
:040118000c020000d5
:020000040000fa
:04011c0026040000b5
:020000040000fa
:0401200026040000b1
:020000040000fa
:0401240026040000ad
:020000040000fa
:0401280026040000a9
:020000040000fa
:04012c0026040000a5
:020000040000fa
:0401300026040000a1
:020000040000fa
:04013400580300006c
:020000040000fa
:040138002604000099
:020000040000fa
:04013c002604000095
:020000040000fa
:040140008003000038
:020000040000fa
:04014400b6030000fe
:020000040000fa
:040148002604000089
:020000040000fa
:04014c007802000035
:020000040000fa
:040150001c0200008d
:020000040000fa
:04015400de020000c7
:020000040000fa
:040158002604000079
:020000040000fa
:04015c002604000075
:020000040000fa
:040160002604000071
:020000040000fa
:04016400260400006d
:020000040000fa
:040168002604000069
:020000040000fa
:04016c002604000065
:020000040000fa
:040170002604000061
:020000040000fa
:04017400260400005d
:020000040000fa
:040178002604000059
:020000040000fa
:04017c002604000055
:020000040000fa
:040180002604000051
:020000040000fa
:04018400260400004d
:020000040000fa
:040188002604000049
:020000040000fa
:04018c002604000045
:020000040000fa
:040190002604000041
:020000040000fa
:04019400260400003d
:020000040000fa
:040198002604000039
:020000040000fa
:04019c002604000035
:020000040000fa
:0401a0002604000031
:020000040000fa
:0401a400260400002d
:020000040000fa
:0401a8002604000029
:020000040000fa
:0401ac002604000025
:020000040000fa
:0401b0002604000021
:020000040000fa
:0401b400260400001d
:020000040000fa
:0401b8002604000019
:020000040000fa
:0401bc002604000015
:020000040000fa
:0401c0002604000011
:020000040000fa
:0401c400ec03000048
:020000040000fa
:0401c8002604000009
:020000040000fa
:0401cc002604000005
:020000040000fa
:0401d0002604000001
:020000040000fa
:0401d40026040000fd
:020000040000fa
:0401d80026040000f9
:020000040000fa
:10020000afa720006efc20000e0188000000000057
:10021000000020000000e000020032000001200089
:1002200020028800140007003b0207000000e000e5
:1002300003003a00801f2200010020000200370066
:100240000000200001002000810f7000010032003a
:1002500014000700000020000000e000020032004f
:10026000000002000000000058240200000000000e
:100270000040da000000fe004440a9000007200012
:100280000000e0000300320000002000a001880010
:100290004440a800000006008a1f78008b1f7800e9
:1002a0000000060091018800800478000000eb0047
:1002b0001a003700e284440032a0b4009905ba0065
:1002c000e284440032a0b4009906ba00e2844400fb
:1002d00032a0b4000006eb00476fde00fd07b2005d
:1002e000636ce10003003a00ebff07000000eb0045
:1002f0000a003700606ce10004003a00005deb008a
:100300008b05e900fdff3e00040037006168e10055
:10031000010032000086eb000b00070019c7ba008d
:100320001905ba000e04e00003003a000a00e000dc
:10033000e0ff3a0000000600fe07b2009e018800c0
:100340008a047800f5ff3700395dba008b05e900b3
:100350000c003200295dba008b05e900080032006c
:100360000c00e00003003a00e284440032a0b40034
:10037000f5ff370019ddba008b05e900faff3a00f6
:100380008904e800e184440032a0b40000000600c3
:10039000000000000000000000000000000000005d
:1003a000000000000000000000000000000000004d
:1003b00000000000000000003400f800881f7800f2
:1003c00008002000a80188004f0478000000fa000f
:1003d0000060fe00ffff37003400f800881f78003f
:1003e00008002000a80188004f0478000000fa00ef
:1003f0000060fe00ffff37003400f800881f78001f
:1004000008002000a80188004f0478000000fa00ce
:100410000060fe00ffff37003400f800881f7800fe
:1004200008002000a80188004f0478000000fa00ae
:100430000060fe00ffff37003600f800809fbe001e
:10044000829fbe00849fbe00869fbe000000fa000f
:10045000a0458000000001007143800060438000df
:10046000808f500002003a008d40a900190037002b
:100470008540a9001000370070438000904078004c
:100480008180fb00811088000000e8007043880034
:100490007143800020892000808f500002003a00c4
:1004a0001087200070438800714380006043800003
:1004b000808f500006003200711080000020200064
:1004c000008060000000e000ebff32000100370018
:1004d000000000000080fa004f03be004f02be0083
:1004e0004f01be004f00be003600f900004006007c
:1004f0003600f800809fbe00829fbe00849fbe0031
:10050000869fbe000000fa00b04580000000010098
:100510008520a9001e003700404380009110800014
:10052000814078000148780041438000208b200002
:10053000808f500009003200404380008000e800b6
:1005400050438000808f5000040032004043800000
:100550000000e800404388000d0037004143800060
:10056000208b2000808f500007003a00514380000c
:1005700020892000808f5000030032002089200055
:10058000404388000200370010c0b30070e8b70095
:1005900070108000610060000000e000deff3a00a3
:1005a0000080fa004f03be004f02be004f01be00a4
:1005b0004f00be003600f900004006003600f8008b
:1005c000809fbe00829fbe00849fbe00869fbe00ab
:1005d0000000fa008560a90001408000001480003e
:1005e000008040000000d100004088008049800069
:1005f0000000e0000a003200804980000000e900ad
:10060000804988005041800040408800604180005f
:10061000504088007041800060408800060037002c
:100620002014800040408800301480005040880032
:100630004014800060408800704080008000780096
:1006400010148000008040000000d100704088003d
:10065000b04080000000e000040032000080e900ab
:10066000e20f500005003e0002003700d421ef00e9
:10067000080037005208070006003700b04080002d
:10068000e40f5000020036001628ef00010037008a
:10069000000000000080fa004f03be004f02be00c1
:1006a0004f01be004f00be003600f90000400600ba
:1006b000809fbe00821f78000000fa008460a900bd
:1006c000814080009248800010c0b300828f5000ab
:1006d000010031000040eb008100e800814088000b
:1006e0000004e000020032008c60a9001628ef0030
:1006f0000080fa004f0178004f00be000040060065
:100700003600f800809fbe00829fbe00849fbe001e
:10071000869fbe000000fa000621ef0084c0a900f9
:10072000b0408000e30f500009003a0020408000f4
:100730000000e8002040880020408000e50f5000c5
:10074000010034000428ef0020408000220a070046
:100750000080fa004f03be004f02be004f01be00f2
:100760004f00be003600f900004006003600f800d9
:10077000809fbe00829fbe00849fbe00869fbe00f9
:100780000000fa0013e1a9000a21ef000621ef00a2
:1007900084c0a90084e0a9008ce0a9001028ef0023
:1007a000b0408000e30f500004003a008041800018
:1007b0002040880020408000070a07000080fa00df
:1007c0004f03be004f02be004f01be004f00be00ef
:1007d0003600f90000400600809fbe000000fa00cd
:1007e00088e0a900e04080000000e800e0408800c8
:1007f000e1408000700c2000808f50000200360025
:100800001c28ef005e88a800d04080000000e800af
:10081000d0408800d0408000f30f50000200360026
:100820001a28ef005e68a800b0408000e20f500078
:1008300003003a00d040800069004000d0408800aa
:100840000080fa004f00be00004006000040da00c1
:100850000000fe000a00fa0011002000b1bf9f0056
:10086000c0bf9f006a8057007d0607004fb8970001
:100870000080fa00000006000a00fa00e20f5000b3
:1008800034003e00b0538000e10f500003003200fe
:10089000e20f500011003a000c003700c320200086
:1008a0000300e00001003a000040da000c02e20020
:1008b000020035001422ef000de2a8000f42ab0049
:1008c0000d003a000f42a8000b0037006321200002
:1008d0000300e00001003a000040da001602e200e6
:1008e000020035001e22ef0017e2a8001942ab00fb
:1008f00001003a001942a800820178000b0037007d
:100900003102fb00e10f500004003a000f22ab005f
:10091000feff3a0084108800030037001922ab0064
:10092000feff3a00d41088008301e9000300e000d4
:10093000f3ff3a00e10f500003003a000f02ab0052
:10094000feff32000b0037001902ab00feff320041
:100950000800370033002000b3bf9f00c0bf9f00d6
:10096000d1bf9f00e2bf9f006a8057003e0607008c
:100970006fb99700020078000080fa0000000600be
:100980000a00fa0051002000b1bf9f00c0bf9f00c5
:100990006a805700360607005fb897000080fa00ab
:1009a00000000600889fbe0080047800c0538000cd
:1009b0000000e00004003a000e0007000084eb0095
:1009c0000000e00008003500c85380000900e00086
:1009d0000500320009004400060007000000e000a6
:1009e00001003d000084eb00080078004f04be00c9
:1009f00000000600800078000100e00003003a00db
:100a000000002000c0538800000005000080eb00bb
:100a100002002000828f500002003e00c153880077
:100a20000000eb00000006001e00fc00881f78009c
:100a30008a1f78004400f800080f20002802880070
:100a40000004900010059000a0009000300190007c
:100a5000c00190000300ca000280ca000030cb0031
:100a60001a00cd004604c3000100ca004604c000bd
:100a70001e04c0000605c0000100cd002100980042
:100a8000050d7800eaba9700052578004400f900c2
:100a90004f0578004f047800000006000e00fc00af
:100aa000801f7800200090000008eb004f007800c5
:100ab000801f7800100090000018eb000018eb0079
:100ac0000008eb004f007800000006001500fc0055
:100ad0004400f800020f20002202880091007800f4
:100ae0003000ca003080ca000000cb002080ca005d
:100af0000000cb003100cd004000ca000000cb0058
:100b00000000cb000010cb003100cd001180cc00e4
:100b10004400f90000000600000005006022b80053
:100b2000060220000000d0008180d2000482d200a2
:100b30008582d2000000a0000202520083825a0087
:100b4000030031000202420083824a000000a1003b
:100b50000603e900f3ff3a0000000600889fbe008c
:100b60000004780001007800820478008801780091
:100b700009017800110020000e000700890f5000c5
:100b8000010032000004eb00080078004f04be00b2
:100b9000000006000000fa00e88157004fb99700f6
:100ba000e19a2000e05a2000570107000080fa0077
:100bb00000000600889fbe008a9fbe008c9fbe007a
:100bc0008e1f78000006780001047800020078008b
:100bd000830478000881b900020778000200e00071
:100be000420032000800e000410032008205780037
:100bf000c900900069009000808f50000400390007
:100c000009007800500007000000e00029003500ce
:100c100000402000190060000a0032000b0178003b
:100c2000a10020000c007800360007008006780044
:100c30000d00e00006003200610516000a8546003e
:100c4000040037000b0578008006eb000100370038
:100c50000b05780049009000e9009000808050006a
:100c60008a8f500002003100010578008006eb00f9
:100c70000a0178008c0078002c0007008a85550056
:100c8000490090000a004000c00498000d00e000f8
:100c90000400320009007800d50007000000e000e1
:100ca00004003a000b00e000020032000a06460091
:100cb000cfff3700008020001900600002003200e2
:100cc00009007800ca00070000c020001900600079
:100cd0000200320049009000e00498008b055700a4
:100ce000110009008885d800010037000000eb00e2
:100cf0004f0778004f06be004f05be004f04be00f0
:100d00000000060003003700b0cf100005003200dd
:100d10000201e900800178000200e000faff3a00d9
:100d20000000050003007800000006008001780044
:100d300002003700b15978000201e9000200e0002a
:100d4000fcff3a0000000600889fbe008a1f780062
:100d500000047800c8009000680190000000eb00db
:100d6000828f50003c0039001800780022002900d2
:100d700002016000e20f5100070032000120240050
:100d80000000e00001003d0001202000008c700008
:100d90000080eb00300037000200260002006000f7
:100da000820f500009003a0038009000808f5000f8
:100db00006003900080078008d00070080007800e8
:100dc0000080eb000100e00023003a0018057800e5
:100dd00000c020000000650018003a00a804900040
:100de0006002200008004000808f540013003a0089
:100df00000202000ed020700200498000000e00021
:100e000005003a0029049800490498008904e80084
:100e100039049800080037000a60a0000a0c780026
:100e20004004980001202000808040003104980098
:100e3000400c9800500c98000c000700280090000f
:100e400050049800380090006004980000002600cc
:100e5000180c70000000eb004f0578004f04be0036
:100e600000000600807d20009b003700881f78006e
:100e700028a720001804e00003003a00f9ff07004b
:100e800020c0b300004c78004f047800000006003a
:100e9000889fbe0000047800080078005400070016
:100ea0008004780000042000180060000200320076
:100eb00028009000580207000000eb002004980072
:100ec000384090000004e000050035000000fb0001
:100ed00060fe07000000e000010032008084eb00ab
:100ee000181090000000e00008003200a4fe070087
:100ef0000000e000010032008084eb001810900038
:100f0000450207000000eb001014980000082000c4
:100f100018006000150032000001eb006000b8000e
:100f2000e39f20000202d00063027a00880f520083
:100f300005003a0000004000818048000080410028
:100f40000008eb000600370061004000e080480028
:100f50000201e800e80f5000e08f5800f0ff3a006f
:100f6000080078002c0207000e003700000c780003
:100f700000c0eb00304498006002200008004000f0
:100f8000200498004004980050049800400c9800f9
:100f900060049800500c980070049800760044009b
:100fa000000c9800090078004f04be000000060005
:100fb000881f78000004eb006140b800e2ff2f00ba
:100fc000f3ff2f00be040700c2a0200062007800db
:100fd0000000e00001003200adff07000804e80057
:100fe000e80f5400f4ff3a004f04780000000600b8
:100ff000889fbe00000478000800e0000e003a0060
:101000008004eb008800d000e09f200061007800a1
:101010000000e00004003200f5ff07000000e000df
:1010200001003d008084eb000804e800e80f540054
:10103000f4ff3a002500370000002200180060008d
:101040008004eb0021003200a80490000f0037005c
:1010500009015100384090000000fb008900780031
:1010600005fe07000000e00007003c00280090009b
:101070004004980060049800500c98001890a0005c
:101080008084eb0011003700808444004801900008
:10109000828f5400eeff3900280090004004980031
:1010a0009800780002c020000281600001003a0030
:1010b0003800900001e8a3000200320060049800ac
:1010c00001003700500c98008004eb000900780004
:1010d0004f04be0000000600010020000100e000f7
:1010e00008003200010080000100e000050032002d
:1010f0008100e900010088008100d000020080002a
:1011000000b17800000006006200fa00889fbe006f
:101110008a1f7800000578008104780002047800b6
:101120008300780080f92f000f0040004a04070078
:101130009a979f00a9979f000000eb00b09f9f0027
:101140001885fb008a04fb000a05ea004f55de0003
:1011500050022000808f54000d003200e10f550036
:101160000b003a000a017800880078002f90970061
:101170009f91970003000100a0979f000000e000ee
:101180008e0032003f9897000000e800b09f9f005b
:101190000a04440050022000808f540004003200f2
:1011a0000900e000e6ff3a003f989700840037000e
:1011b0000000eb00909f9f00809f9f00f0979f0092
:1011c000e0979f00d0979f00c0979f0007003700cf
:1011d00081a620000100500000004000c1a52000b1
:1011e00061007800df98970001007000d09f9f0099
:1011f0008804780009047800384578008a00fb00ec
:1012000080a62000130207000000e000f0ff3a0073
:10121000a1c2b300814f55000e003a00cf8897005d
:101220000180e900c08f9f0010007800c09f9f00e0
:101230000000e00005003d000000ea00c09f9f00a4
:101240005f9897000020a000d09f9f000904e8004d
:101250000f003700c09f9f000000eb000500370023
:10126000f2ff2700820f5000020032006a01b9002d
:10127000028040000904780088047800b900fb006f
:101280000103b100e98f5000f5ff3600c09f9f00b9
:10129000e0c2b300984f1000020032000080eb0063
:1012a00019003700a0c2b300d84f100007003a0061
:1012b000cf8897000180e900c08f9f001000780060
:1012c000a09f9f000804e800100037000000eb001a
:1012d000a09f9f008800780005003700f3ff2700db
:1012e000830f5000020032006a02b900040041007e
:1012f00001047800880078003101fb000203b1008e
:10130000e90f5100f5ff3600a09f9f009844780038
:101310008900fb0040a52000ce0107000000e0008e
:10132000020032000804e800010037008044eb00ae
:10133000c97f9f0080c6b30080cf540004003a00ec
:1013400098cf14000a003a006640500006003700ab
:10135000c0c6b30080cf540005003a0098cf1400f7
:1013600003003a0065404000c07f9f000804e80089
:101370001801fb00e3fb2f008f81410081f92f0052
:101380008f804000a0f92f000f00400010000700e0
:101390000000e00009003a00e1fb2f008f804000d0
:1013a000a0f92f000f004000ef0207000000e0004e
:1013b000020035000804e80061ff37000080eb0000
:1013c0004f0578004f04be000080fa0000000600c0
:1013d000889fbe008a9fbe00e4c6b300844f5100c0
:1013e000be00320010003c006b425200844f51009e
:1013f0001800320005003c0054c2b300844f510075
:10140000f600320084c5b3000f00370044c6b300b5
:10141000844f51001400320065424200844f510055
:10142000f1003a001000370004c7b300844f5100a8
:10143000dd0032005600350065424200844f510005
:101440005300320063424200844f5100e6003a00ec
:101450004f0037001181e90082087800f000900009
:1014600012417800de00370020629000c5c6b3004c
:10147000854f520007003a009102780064825200c2
:10148000840878001402be004fabde0086037800ab
:101490001400370015c7b300854f520003003a000f
:1014a000110478006802540005003700a5c6b30097
:1014b000854f520006003a0091047800688254007b
:1014c000840878005403be004402be0005003700c3
:1014d0001182e9008408780014027800cfa2de00af
:1014e000612bb9000498be000690be00a060900079
:1014f00088c6b30088cf50000d00320028c6b30064
:1015000088cf500004003a000402fb00cfa2de00a6
:10151000612bb9000800370048c7b30088cf5000de
:10152000030032006644440088cf500004003a00b3
:10153000cfa2de00612bb9000498be000690be0069
:101540003002be002003be00f0009000e00f520009
:10155000e08f5a00e00f5b00e08f5b0002003d006f
:10156000d4c2b30008003700001290000418a30092
:1015700002003200b4c2b300030037000408a30025
:101580005100320004c2b30084f178004c003700ef
:1015900020629000c5c6b300854f520008003a0093
:1015a0001105780064025500840878001404be0018
:1015b0006055b8000802be000a03be0014003700e0
:1015c00015c7b300854f520003003a00910478001c
:1015d0006882540005003700a5c6b300854f52004d
:1015e00006003a001105780068025500840878006a
:1015f0005403be004402be00050037001182e9001a
:1016000084087800140278008002eb006033b80090
:101610000498be000690be00a060900088c6b3008b
:1016200088cf50000d00320028c6b30088cf50008c
:1016300004003a000482fb008002eb006033b80033
:101640000800370048c7b30088cf500003003200bd
:101650006644440088cf500004003a008002eb004a
:101660006033b8000498be000690be008010900061
:101670000138a300140032003002be002003be0077
:10168000e00f5200e08f5a00e00f5b00e08f5b003c
:101690000d00320081c7b300814f510003003200ba
:1016a00081c5b300814f510007003a00f00090005f
:1016b00004c3b30084f178008100e80082f178006f
:1016c0008100e80071009800f000900081814100e5
:1016d00063009800824078003e003700a0619000cf
:1016e000c4c6b3001181e90084cf5100220032004a
:1016f0000a003c006442520084cf510025003200b1
:1017000004c2e80084cf5100130032006842520046
:1017100084cf51001e003a000a00370044c7b300ce
:1017200084cf51001b0032006642420084cf51003a
:10173000180032006942520084cf510014003a0070
:101740000500370082087800920078004058900029
:10175000804878002c0037008208780092007800da
:10176000600a9000cfa2de00612bb9008498be0011
:101770008690be002400370082087800920078002e
:1017800060099000cf91de008288be001e00370005
:101790001181e900820878009200780060089000ca
:1017a00080087800180037001181e900820878006d
:1017b00012027800cfa2de00612bb9000498be00af
:1017c0000690be00f0009000818141006300980007
:1017d00081c7b300b50007000b003700f000900090
:1017e00082f1780006003700f0009000818141000e
:1017f0000204e00001003a0052c2b30082497800be
:101800008100e800710098000000eb004f05be0069
:101810004f04be00000006000000e0002f00320070
:10182000c0017800e38f51002c0036000308a300ac
:101830002a003a00815380000100e00002003200db
:10184000810f50000400310011009800805388007f
:101850001600370082007800110190000200e000bd
:1018600002003200800f5100faff390011027800a7
:1018700084824000850f500018003900808f52008c
:1018800003003a0083084200010078000700370097
:101890000200e0000300320083014000830f51008a
:1018a0000e003900120098009000980090009000ff
:1018b0000100e0000900320010014000828f50005a
:1018c00006003a00e2a620000009eb0010017800b3
:1018d00011084100910090001100980000000600de
:1018e000889fbe0000047800715380000100e00072
:1018f00002003200010078000d00370081538000a3
:1019000000a7200004003700910f54002500360086
:101910000180e800910090000100e000faff3a0029
:1019200010003700920f54001e0036000280e800bd
:10193000100178000200e000faff3a00110178007f
:101940008153800000a7200004003700910f54004d
:10195000140036000180e80091009000828f500052
:10196000faff3a00a9538000888f5400010031002b
:101970008804780009007800420007000000e000b9
:1019800004003a00888f5400050032008904d10019
:10199000f5ff3700091878009fff0700d2ff3700d6
:1019a0000000eb004f04be0000000600881f780016
:1019b000630440000800a1008000eb00800f540089
:1019c00021003600e30f540001003e0048002000d3
:1019d00008007800c2ff07008000eb000000e00074
:1019e0001900320090007800910178006481510064
:1019f000880f5100030031001101900002087800a7
:101a0000070037000881400002087800910190002b
:101a1000130198001001780011091400880878005b
:101a2000100178000000eb000200e000040032002a
:101a3000920190000300e000010032000280e80003
:101a4000705388008180e800010078004f0478001e
:101a500000000600020037000304e0000600320028
:101a60000001780002007800b041780081cf510079
:101a7000f9ff3a00010037000001eb000200780096
:101a800000000600800078000000eb000100e0008c
:101a90000500340001007800c2fb0700e10f4000a0
:101aa00001003a000000eb0000000600fc87470040
:101ab000889fbe008a9fbe008c9fbe008e1f78004c
:101ac0000006780080c5b30080cf50000a003200c5
:101ad0007740400080cf50000a003200694040004b
:101ae00080cf50000b00320030a4200080bf9f0048
:101af000ae0020000a00370022a3200082bf9f0012
:101b00000600370033a4200083bf9f008e00200012
:101b10000300370034a4200084bf9f000e01200082
:101b20003c02be002c03be000605be000404be003d
:101b300040c6b30080cf5000030032006540400033
:101b400080cf50000b003a00e00f5200e08f5a00a7
:101b5000e00f5b00e08f5b0006003d006000b80016
:101b60006011b8000404500085845800060559002f
:101b700087855900e80f570004003200400020001c
:101b8000f00f570038003a00010037003000200005
:101b9000e00f5400e08f5c00e00f5d00e08f5d001f
:101ba00004003a00dc0890008d0120000100e000f4
:101bb000060032008e00e900888060008fba97002e
:101bc000e5c07800f1ef9f007d01200080007800e3
:101bd0008100e900050033008b05d1000a85d300a0
:101be0008984d3000884d300f9ff3700089ebe0023
:101bf0000a96be00120037008d06e9008e00e9004b
:101c0000848060000fb99700e2c1780082fd2f0048
:101c10000f01410003f17e00800078008100e9009f
:101c2000050033008783d1000683d3008582d3006b
:101c30000482d300f9ff3700049ebe000696be0062
:101c40003c02be002c03be00e00f5200e08f5a00a1
:101c5000e00f5b00e08f5b008b0034000d00e000c4
:101c6000e5ff3c00880037002c60900081c6b3007f
:101c7000814f50000b00320006003c000004e000e1
:101c800008003200e6c05000814f50004e003a007c
:101c900004003700c1c6b300814f50004a003a002b
:101ca000210037000800e00004003a005c089000c2
:101cb0008d0120000000e000060032001100090044
:101cc0000e84d8000fb99700e2c07800f1ef9f00b2
:101cd0007d012000110009000e84d8000a003700a1
:101ce000110009000e04d8008d06e9000e81b9002c
:101cf000020454008fb8970061417c0081fd2f00e1
:101d00008f80400082f07e00000478000800e00030
:101d1000020032000d00e000f1ff3c00cfc4de0005
:101d2000614db90025003700e00f5400e08f5c00e2
:101d300004003a005c0890008d0120000000e000e3
:101d4000070032006171b9000800be0059010700a8
:101d50008fb99700e3417800f3ef9f007d012000e9
:101d60006171b9000800be006cfb07000b00370072
:101d70006171b9000800be003f0107008d06e9004f
:101d800000f1b900020454000fba9700e4427c004d
:101d900084fd2f000f02420005f27e000004be0009
:101da000e00f5000e08f5800020032000d00e0000c
:101db000efff3c004fcdde008a057800089ebe0094
:101dc0000a96be0030003700e00f5400e08f5c0040
:101dd000e00f5d00e08f5d0004003a005c089000b9
:101de0008d0120000000e000090032006172b9009e
:101df000612bb9000800be000a01be00d601070031
:101e00000fba970064427800f4ef9f007d01200034
:101e10006172b900612bb9000800be000a01be0062
:101e2000c60107000d0037006172b900612bb900cf
:101e30000800be000a01be00cb0107008d06e900c4
:101e400000f2b900040454008fba970065427c0088
:101e500085fd2f008f82420084f27e00009ebe002e
:101e60000296be003c04be002c05be00e00f5400ec
:101e7000e08f5c00e00f5d00e08f5d000200340049
:101e80000d00e000e8ff3c00e80f570010003a00aa
:101e90000c1090000038a3000d003200f78f5600a0
:101ea00006003e0085fd2f008f824200e5c07e00c7
:101eb00000c3b30080cf5000050032008d06e9005a
:101ec00002c3b30081fd2f008f80400082f07e00ae
:101ed00078811600120e98006c00900083fd2f0090
:101ee0008f8141008d80410090fb07001c0890000d
:101ef000dc089000810f500006003d00008050007b
:101f0000000e98000c1090000040a10000169800f0
:101f10000f0037000100e0000d003d008c10900024
:101f2000f4806000f08f500009003a007c099000b6
:101f3000fc009000810051000c099000828050004c
:101f4000008050004240a90001003400000e9800bb
:101f50004f0778004f06be004f05be004f04be007d
:101f6000cf01b100000006000400fa00889fbe0007
:101f70008a9fbe008c1f780000047800010678005c
:101f8000f80d9000780090008085550008089000ba
:101f9000808555001808900080855500280890001d
:101fa00080855500380890008085550048089000cd
:101fb000808555000002220090bf9f00000323008f
:101fc000a0bf9f00081090000028a30015003a0051
:101fd0000b00e000130034000b0578008a04780041
:101fe000e20f55000100360029002000c8019000d2
:101ff00009017800ee8057005800900003000100ae
:10200000500498000000e0008c0032006808900046
:1020100009004000600c9800090555004240a900e5
:10202000eeff3c00780190000200e0000c0034005c
:10203000c80190008c007800580090000300010057
:10204000500498008080eb000000e0007c0032002b
:10205000e80890007800900000804000600c980034
:10206000880c90000900e000110034000905780098
:10207000e28f5400010036002a002000c8019000c1
:102080000a017800ec80570058009000030001001e
:10209000500498000000e0006800320068089000da
:1020a0000a004000600c98008a845400edff37005d
:1020b000180990000200e0000c003400c8019000f4
:1020c000e8009000580090000300010050049800c0
:1020d0008080eb000000e00059003200e80890002a
:1020e0001808900000804000600c9800a80c900038
:1020f0000900e0001100340009057800e28f540067
:10210000010036002a002000c80190000a01780072
:10211000ec80570058009000030001005004980024
:102120000000e00045003200680890000a0040000e
:10213000600c98008a845400edff37003809900045
:102140000200e0000e003400e80090001808900043
:1021500080804000c80190005800900003000100fa
:10216000500498008080eb000000e0003400320052
:10217000e80890003808900000804000600c98004b
:10218000c80c90000900e000110034000905780037
:10219000e28f5400010036002a002000c8019000a0
:1021a0000a017800ec8057005800900003000100fd
:1021b000500498000000e000200032006808900001
:1021c0000a004000600c98008a845400edff37003c
:1021d000081090008000eb000028a30018003200d7
:1021e0000b00e000160034008b047800090578002d
:1021f000e28f5400010036002a002000c801900040
:102200000a017800ee80570058009000030001009a
:10221000500498000000e0000800320068089000b8
:102220000a004000600c98008a8454004240a900d3
:10223000eeff3c008000eb00010037008080eb00e7
:10224000010078004f0678004f05be004f04be0025
:102250000080fa0000000600010878000000060077
:1022600000c0da000000060000c0da00000006002e
:1022700000c0da0000000600839f68000100e00053
:1022800002003d0060001000e08018000300e00044
:1022900002003d0060011100e08119001ffa0700f3
:1022a0004f00e00002003b0060001000e0801800da
:1022b0000000060019fa07000400be000000060036
:1022c000020ab900001bb9000200b80081004200f8
:1022d0008100430000000600889fbe008a9fbe0068
:1022e00030044200b0844a0030054b0090854b001a
:1022f0006000b1000898be000a90be000440e100f2
:1023000005c8e10006d0e10007d8e1000200310075
:10231000680040001008e8004f05be004f04be00f2
:1023200000000600889fbe008a9fbe003004be00e9
:102330002005be000418540005985c0006185d00d6
:1023400007985d00110020000440e10005c8e1008d
:1023500006d0e10007d8e100010039008000eb0061
:10236000108810004f05be004f04be00000006009c
:102370001200fa00889fbe008a9fbe008c9fbe009c
:10238000e0b79f00f1b79f0082bf9f0093bf9f00ff
:102390000605be000404be000000eb00d0b79f009d
:1023a000c0b79f00b0b79f00a0b79f0090b79f0035
:1023b0000006eb005fb19700cfb0970082014100ab
:1023c0003fb097000200e00004003d003700070026
:1023d0007e805700c0ff070003003700330007006e
:1023e0007e805700cfff0700dfb697000d00e000aa
:1023f0000c0035006fb29700ffb297000fbb97003b
:102400009fbb970010002000010020006011b80061
:1024100000027200818272000203730083837300e2
:102420001b0007000c06e80001042000810f560085
:10243000e0ff3a000d00e00004003d000802be008d
:102440000a03be007e805700a3ff07005fa8970025
:102450000000e00005003a001fb29700afb29700fd
:102460003fb39700cfb39700090007006fb0970004
:10247000ffb097000fb997009fb997004f06be00b5
:102480004f05be004f04be000080fa0000000600a9
:102490000100070000000600a4b79f00b5b79f0029
:1024a000c6b79f00d7b79f00000006004f09de00a7
:1024b00082817100b3b79f004f01de008180400030
:1024c00082807000a1b79f008fb097004f09de0097
:1024d000000040000200700090b79f007fa89700a6
:1024e0004f01de00818040008280700081b79f0034
:1024f0000d0007004f3ade000000400004007000ad
:10250000f0af9f00080007000402420085824a00e5
:1025100006034b0087834b00dfff07000802be0065
:102520000a03be00000006002fb29700bfb297005a
:102530004fb39700dfb3970000000600881f7800b4
:1025400018002000881f780089ff07008f87e900a6
:102550004f04780000000600801feb0084ff070096
:102560008f87e90000000600889fbe008a9fbe009a
:10257000e00f5000e08f5800e00f5900e08f590045
:102580000c003d006044b8006055b80000005400e5
:1025900081805c0002015d0083815d0018002000e5
:1025a0001500070008003d00180007000004eb00bc
:1025b000050037000004eb000f00070002003d009b
:1025c0001200070018002000dcff07000800e000f0
:1025d000060032006022b8006033b80000005200ec
:1025e00081805a0002015b0083815b004f05be00c1
:1025f0004f04be0000000600e00f5200e08f5a00ba
:10260000e00f5b00e08f5b00000006006044b80054
:102610006055b8000402540085825c0006035d002a
:1026200087835d0000000600889fbe008a9fbe0071
:102630008c1f7800e00f5000e08f5800e00f590029
:10264000e08f59000d003d006044b8006055b800af
:102650000000540081805c0002015d0083815d0008
:102660001c0020000820e10009a8e1000ab0e100f8
:102670000bb8e1000d003d00080037000006eb003c
:10268000e00f5200e08f5a00e00f5b00e08f5b002c
:1026900006003d006044b8006055b80004025400d4
:1026a00085825c0006035d0087835d00aaff07004a
:1026b0000c00e000060032006022b8006033b80071
:1026c0000000520081805a0002015b0083815b00a0
:1026d0004f0678004f05be004f04be000000060004
:020000040000fa
:1026e000000000006400000000000000e80300009b
:1026f000f4010000641900000a000000f401000069
:10270000f40100008813000000000000ffff00003b
:10271000000000001400000000000000007d000028
:1027200000000000ffff0000000000001e0000008d
:102730000200000014000000640000008403000098
:102740000000000014000000534500004e5300003c
:102750004f5200004c450000535300005f490000f9
:102760004e490000540d0000004d00004f54000081
:102770004f5200005f4f0000464600000d00000071
:10278000424c00004443000020530000454e00002e
:10279000534f0000524c00004553000053200000ee
:1027a000434f00004e540000524f00004c450000c3
:1027b000520d000000000000256400000a00000027
:020000040000fa
:1027c0000600fa00889fbe0020438000e50f5000fd
:1027d0000d003e00809620008050880013002000ed
:1027e000c2822000a1802000a0a12000f7070700de
:1027f00013002000e2822000c180200060a220009f
:10280000f207070002003700a094200080508800e3
:1028100013002000a282200081802000e0a0200080
:10282000ea07070070408000cf00de000080400013
:102830000080d1008000780030438000008040009c
:1028400020418800514180002041800000805000dc
:102850006101b90000418000114180000200400088
:1028600083804800004188001141880000418000b9
:10287000114180004309dd004d04de0008047100b1
:10288000cd8cde00080078003043880020438000b3
:10289000e50f500004003e0090408000e017b000bb
:1028a000100798000300370090408000c016b00069
:1028b00010079800204380008000eb009200200069
:1028c00003002000820f5000838f5800a5013e00b6
:1028d0000060010009003700320037005b0037005c
:1028e00084003700bf003700e80037000f013700d1
:1028f000150137004b01370051013700514180006d
:1029000020418000808f500099013d0020438000cd
:1029100001088000000140002083200000004100e9
:10292000010878000021ef00b9010700000f7800ce
:102930001e0090009e007800808f50000200310041
:102940009e009000010f78001e0090001e001000f5
:1029500070088800300020008041880013e1a80042
:102960008ce0a800a04080006f0160001e0078008d
:102970006600b9008000780002014100e083200079
:102980000000410001087800a04080000000e8003d
:10299000a0408800204380000000e8002043880019
:1029a0008a0137007141800020418000808f5000f3
:1029b00071013400204380000108800000014000c4
:1029c0002083200000004100010878000021ef0072
:1029d0008f010700000f78001e0090009e00780015
:1029e000808f5000020031001e019000020f78001d
:1029f0001e0090001e00100070088800400020009b
:102a00008041880013e1a8008ce0a800a04080006d
:102a10006f0160001e0078006600b9008000780039
:102a200002014100e083200000004100010878001d
:102a3000a04080000000e800a04088002043800003
:102a40000000e800204388006001370061418000f9
:102a500020418000808f500049013d0020438000cc
:102a60000108800000014000208320000000410098
:102a7000010878000021ef0065010700000f7800d1
:102a80001e0090009e007800808f500002003100f0
:102a90009e009000010f78001e0090001e001000a4
:102aa00070088800500020008041880013e1a800d1
:102ab0008ce0a800a04080006f0160001e0078003c
:102ac0006600b9008000780002014100e083200028
:102ad0000000410001087800a04080000000e800ec
:102ae000a0408800204380000000e80020438800c8
:102af000360137005141800020418000808f500016
:102b000021013400204380000108800000014000c2
:102b10002083200000004100010878000021ef0020
:102b20003b010700000f78001e0090009e00780017
:102b3000808f5000020031001e019000020f7800cb
:102b40001e0090001e001000700888003028ef0062
:102b500013e1a8008ce0a800a04080006f01600095
:102b60001e0078006600b900800078000201410074
:102b7000e08320000000410001087800a0408000b0
:102b80000000e800a0408800204380000000e8002a
:102b900020438800f0428000620060000000e000f6
:102ba000fb00320060002000204388000621ef0077
:102bb0001e007800000040006008880084c0a90062
:102bc0008cc0a8005e48a800a1e2a9005004200023
:102bd000501588008040200010158800a1e2a80050
:102be000fa0037007141800020418000808f500042
:102bf000e9003d0020438000010880000001400002
:102c00002083200000004100010878000021ef002f
:102c1000ff000700000f78001e0090009e00780063
:102c2000808f5000020031009e009000010f78005c
:102c30001e0090001e001000700888001000200088
:102c40008041880013e1a8008ce0a800a04080002b
:102c50006f0160001e0078006600b90080007800f7
:102c600002014100e08320000000410001087800db
:102c7000a04080000000e800a040880020438000c1
:102c80000000e80020438800d00037006141800048
:102c900020418000808f5000c1003400204380001c
:102ca0000108800000014000208320000000410056
:102cb000010878000021ef00d5000700000f780020
:102cc0001e0090009e007800808f500002003100ae
:102cd0001e019000020f78001e0090001e001000e0
:102ce00070088800200020008041880013e1a800bf
:102cf0008ce0a800a04080006f0160001e007800fa
:102d00006600b9008000780002014100e0832000e5
:102d10000000410001087800a04080000000e800a9
:102d2000a04088006428ef00a80037002040800001
:102d3000e20f50009c003a00204380000000e800b1
:102d400020438800a10037005141800020418000cd
:102d5000808f500096003d00a04080006f00600012
:102d60000108800000014000e083200000004100d5
:102d7000010878000021ef00a04080006f00600093
:102d800080004000e0832000008040009000780038
:102d9000a04080000000e9006f00600000014000da
:102da000e083200000004100100078000080400017
:102db00020079800ae009000b0aa2a000008b800d2
:102dc0004208de00600888002e009000c200de008d
:102dd0001e009000808f5000020031000e21ef0095
:102de000050037002e009000c200de001e0090009b
:102df0000080500070088800a04080000000e800bb
:102e0000a0408800400020008041880013e1a80015
:102e10008ce0a800204380000000e80020438800e8
:102e20006a00370020408000e50f500062003a0041
:102e3000204380000000e800204388006300370042
:102e40005141800020418000808f50005c003400a0
:102e5000a04080006f006000010880000001400079
:102e6000e083200000004100010878000021ef000d
:102e7000a04080006f00600080004000e0832000e0
:102e80000080400090007800a04080000000e90031
:102e90006f00600000014000e0832000000041005e
:102ea000100078000080400020079800ae009000dd
:102eb000b0aa2a000008b8004208de0060088800b6
:102ec0002e009000c200de001e009000808f500097
:102ed000020031000e21ef00050037002e009000a7
:102ee000c200de001e0090000080500070088800c4
:102ef000a04080000000e800a040880010002000f2
:102f00008041880013e1a8008ce0a8006000200048
:102f100020438800f0428000620060000000e00072
:102f200029003a0040002000204388003028ef00ac
:102f3000600880008000d1001e00900000805000da
:102f4000700888008cc0a900a1e2a900501c2000d4
:102f5000501588000041200010158800a1e2a8004b
:102f60001a0037006428ef00000000001700370047
:102f700000000000150037000000000013003700bb
:102f80000000000011003700000000000f003700b3
:102f9000000000000d003700000000000b003700ab
:102fa00000000000090037000000000007003700a3
:102fb000000000000500370000000000030037009b
:102fc0000000000001003700000000004f04be00b8
:102fd0000080fa00000006000200fa00000f7800ee
:102fe0001e007800800040004092200000804000d9
:102ff00010007800a00e88001e0078003040880085
:10300000a0468000804988000080fa000000060089
:103010000a00fa006000b800100798002107980025
:103020000000eb00000f78000d0037001e00780054
:1030300080004000208320000080400010007800c5
:103040008000eb001e019000ae01900002004000e5
:103050008380480010079800210798001e0fe800a1
:103060001e007800e50f5000f0ff36001e019000b2
:10307000ae0190003207980043079800c20020007c
:103080003e029000ce0290001100090042aad80032
:10309000000f78001e0078000080fa000000060093
:1030a0000600fa005e68a900ca01a800b0408000ce
:1030b000e20f50000c013200e20f500005003e000c
:1030c0000000e00008003200e10f5000fd00320077
:1030d00095013700e30f500007003200e40f500065
:1030e0006200320090013700d621ef00d821ef00b6
:1030f000da21ef0094013700324180004341800023
:10310000b04680008000eb00000151008181590031
:10311000c04680008000eb00009ab90004027800ed
:10312000028bb90086027800050242000013b80045
:103130001607980027079800ae0390000702420088
:1031400024079800823e20001e029000ae029000ec
:103150001100090042aad8009049880090498000d7
:10316000fe0f500002003600e00120009049880068
:10317000904980000000e00002003a001228ef00b1
:103180001e003700b04680006101b8003041800069
:1031900041418000800f5100818f5900160031009d
:1031a000904980006101b800b0498000c1498000a9
:1031b000009ab90004027800028bb90086027800f8
:1031c000050242000013b800160798002707980070
:1031d000ae039000070242002407980082162000e8
:1031e0001e029000ae0290001100090042aad80011
:1031f00090408800010037001228ef0080488000ce
:103200002103200080804000a0498000808f500072
:1032100003003100d04980000000e800d049880058
:1032200080488000e1fc2f0080804000a0498000a1
:10323000808f500003003600d04980000000e90074
:10324000d0498800d0498000f40f500002003400bb
:103250005e28a8003a29ef00d0498000f40f400012
:1032600002003d005e28a9003a29ef003629ef0050
:103270003829ef000000eb00000f78000d00370048
:103280001e00780080004000e083200000804000a5
:10329000100078006101b800b0498000c149800089
:1032a0000200400083804800b0498800c14988007e
:1032b0001e0fe8001e007800ef0f5000f0ff3600f0
:1032c000b0498000c1498000cd0add004300de0026
:1032d00000807200c308de00b0498800c149880040
:1032e000b0498000c149800000017800060020003c
:1032f000271c200016079800270798001e02900040
:10330000ae0290001100090042aad8004300de007e
:10331000a049880076488000a04980008000eb002a
:10332000820720000289b900020178006002b9001a
:103330008401780003014100830720000302b800e4
:103340001407980025079800ae029000050141007f
:10335000220798001e019000ae01900011000900a4
:103360004699d8008000eb00304188004141880038
:10337000f142800000022000008060000000e000b8
:103380003500320000fa20005047880030418000ac
:10339000414180000000780040478800208e2000d6
:1033a000a1f50700304780000000e00001003d006b
:1033b000e628ef003147800070eb2700808f500037
:1033c0000500340040b52000b00e880070eb2700e7
:1033d000304788001500370030478000cf80de007e
:1033e00042b520000289b900020178006002b900ec
:1033f000840178000301410043b520000302b800b6
:103400001407980025079800ae02900005014100be
:103410002207980072eb27001e029000ae02900077
:103420001100090042aad800b00e8800b00e80003a
:10343000c00e8800b00e8000d00e8800304780009b
:10344000801f7800c03d2900801f7800d1f507005b
:10345000e4875700bc003700f142800000042000e0
:10346000008060000000e000b400320000408000f6
:103470008000eb0042b520000289b900020178000b
:103480006002b900840178000301410043b52000c7
:103490000300b8000101410082007800f23f2000e3
:1034a000030020009df5070000007800b00e8800a2
:1034b000b00e8000c00e8800b00e8000d00e8800d4
:1034c000a1003700a3000700704080000080d100f9
:1034d0002041880020002000b04088003a29ef00f9
:1034e0005e28a90098003700c0408000e10f50001e
:1034f00020003200e10f500005003900e20f5000bb
:1035000035003200e30f50003e00320083003700e8
:10351000c0458000b00e8800b00e8000c00e88004c
:10352000b00e8000d00e8800e04580000000e90069
:10353000e0458800e04580000000e0000c003a0013
:10354000204080000000e8002040880020408000eb
:10355000e50f5000010034000428ef0020408000f7
:103560009dfe0700c04080000000e800c0408800c9
:103570006c003700d0458000b00e8800b00e80008f
:10358000c00e8800b00e8000d00e8800f04580008c
:103590000000e900f0458800f04580000000e000f0
:1035a0000c003a00204080000000e8002040880025
:1035b00020408000e50f5000010034000428ef0097
:1035c0002040800084fe0700c04080000000e8002a
:1035d000c0408800530037003c29ef0000468000bf
:1035e000f049880030468000004a8800304680005c
:1035f000104a8800c04080000000e800c0408800f9
:1036000048003700e14980002246800010c0b30026
:10361000828f5000010031000040eb008100e80083
:10362000e14988000004e000080032001828ef009b
:1036300030002000b040880013e1a9008ce0a90010
:103640008460a9008c60a80033003700e149800045
:103650005046800080027800110009008580d80063
:103660008000fd000000e00003003a00f049800007
:103670000000e800f0498800f0498000b00e8800a2
:10368000b00e8000c00e8800b00e8000d00e880002
:10369000e1498000604680000003780011000900c5
:1036a0008680d8008000fd000000e00006003a009f
:1036b000004a80000000e900004a8800104a8000ab
:1036c0000000e900104a8800014a800010c0b300e1
:1036d0000100e000010034000040eb008100e9003f
:1036e000014a88000004e0000b003200104a80000c
:1036f000004a8800204080000000e8002040880048
:1037000020408000e50f5000010034000428ef0045
:103710002040800030fe0700020037001828ef002c
:103720000000000008003700b0408000e40f5000a7
:10373000040036001628ef000300370000000000e8
:103740000100370000000000ca01a9000080fa0053
:10375000000006000400fa0010079800919b840006
:1037600060478000808f500002003100909b8400f1
:1037700060478800919b840070478000808f5000d4
:1037800002003100909b840070478800919b840068
:10379000a0478000808f500002003100909b840081
:1037a000a0478800919b8400b0478000808f500024
:1037b00002003100909b8400b0478800919b8400f8
:1037c00060488000808f500002003100909b840090
:1037d00060488800b19b840080478000808f500043
:1037e00002003100b09b840080478800b19b8400b8
:1037f00090478000808f500002003100b09b840011
:1038000090478800c19b8400c0478000808f500093
:1038100002003600c09b8400c0478800d19b840012
:10382000c0478000808f500002003100d09b840090
:10383000c0478800e19b8400d0478000808f500003
:1038400002003600e09b8400d0478800f19b840092
:10385000d0478000808f500002003100f09b840030
:10386000d0478800019c8400e0478000808f500092
:1038700002003600009c8400e0478800119c840010
:10388000e0478000808f500002003100109c8400cf
:10389000e0478800719c840010488000808f5000b1
:1038a00002003100709c840010488800719c8400e4
:1038b00020488000808f500002003100709c8400fe
:1038c00020488800719c840030488000808f500020
:1038d00002003100709c840030488800319c8400d4
:1038e000f0478000808f500002003100309c84003f
:1038f000f0478800519c840000488000808f500071
:1039000002003100509c840000488800919c840093
:1039100040488000808f500002003100909c84005d
:1039200040488800b19c840050488000808f50003f
:1039300002003100b09c840050488800c19c840083
:1039400070488000808f500002003600c09c8400c8
:1039500070488800d19c840070488000808f50009f
:1039600002003100d09c840070488800e19c8400f3
:1039700080488000808f500002003600e09c840068
:1039800080488800f19c840080488000808f50002f
:1039900002003100f09c840080488800019d840072
:1039a00090488000808f500002003600009d840007
:1039b00090488800119d840090488000808f5000be
:1039c00002003100109d840090488800604780000c
:1039d0008000eb0042b520000289b90002017800a6
:1039e0006002b900840178000301410043b5200062
:1039f0000300b80001014100820078004206200067
:103a00000300200045f4070000007800c04588004e
:103a1000704780008000eb0042b520000289b900a9
:103a2000020178006002b9008401780003014100be
:103a300043b520000300b800010141008200780076
:103a4000420620000300200034f407000000780044
:103a5000d0458800804780006a00b90000007800e7
:103a6000e0458800904780006a00b90000007800b7
:103a7000f0458800a04780008000eb0042b52000a0
:103a80000289b900020178006002b900840178005f
:103a90000301410043b520000300b80001014100cb
:103aa0008200780042062000030020001bf407007b
:103ab0000000780000468800b04780008000eb00de
:103ac00042b520000289b900020178006002b90005
:103ad000840178000301410043b520000300b800d1
:103ae000010141008200780042062000030020000e
:103af0000af407000000780010468800c0478000e4
:103b00006a00b900000078002046880070488000f4
:103b10006101b800d04780008000eb00009ab90036
:103b200004027800028bb900860278000502420088
:103b30000010b80001024200840078000001be00bd
:103b400000d4200031002000f4f3070000007800ca
:103b500030468800704880006101b800e04780006e
:103b60008000eb00009ab90004027800028bb900d3
:103b700086027800050242000010b80001024200ef
:103b8000840078000001be0000d420003100200035
:103b9000e2f30700000078004046880031468000cc
:103ba00040468000808f5000030031004046800076
:103bb0000080e800304688002146800032468000c0
:103bc000404680000000510000017800110009000b
:103bd0008280d8000000e80060468800114680001e
:103be00000468000808f50000300310000468000b6
:103bf0000080e800104688002146800012468000c0
:103c0000004680000000510000017800110009000a
:103c10008280d8000000e80050468800704880008c
:103c20006101b8004318dd00cd10de008100700096
:103c30004310dd000001be00000020008197260037
:103c4000b6f307007046880081468800f047800080
:103c50004a00de000000e80090468800004880002e
:103c6000a046880040488000b04688005048800048
:103c7000c0468800f0478000d04688001048800089
:103c8000e046880020488000f046880030488000e8
:103c9000004788004094200010478800a0ff2000c3
:103ca00020478800218e2000c08d200087f3070068
:103cb0000000eb00000f7800070037001e007800be
:103cc00080004000a0ff2000008040008000eb004a
:103cd000010878001e0fe8001e007800e20f500077
:103ce000f6ff3e00b0408000e10f500012003a00a5
:103cf000604880008000eb0072eb27000289b90069
:103d0000020178006002b9008401780003014100db
:103d100073eb27000300b800010141008200780026
:103d200042062000030020007cf30700000078001a
:103d30003047880001003700e628ef000000eb0064
:103d4000000f78001a003700704880006101b80049
:103d5000d04780008000eb00009ab9000402780090
:103d6000028bb90086027800050242000010b800fc
:103d700001024200840078004309dd00cd01de002d
:103d8000830171004301dd000000200081972600bf
:103d900062f30700800078001e00780000014000f8
:103da000e083200000004100010878001e0fe800b9
:103db0001e007800ef0f5000e3ff36000080fa008d
:103dc000000006000000fa008d40a9008d20a90027
:103dd00000f62d0060108800d0792f007010880048
:103de000f00b2000a010880010872000704388008e
:103df00010872000604388002089200050438800fd
:103e000020892000404388007068ef0000f3210003
:103e100007000700e0f42100140007008d20a8002f
:103e20000de2a8000f42a8000080fa000000060082
:103e30000200fa00000f78001e0078000000e00089
:103e400003003a0000f32100a0458800020037007b
:103e50001e007800a04588000080fa0000000600df
:103e60000000fa000080fa00000006000200fa00dc
:103e7000000f78001e0078000000e00003003a0008
:103e8000e0f42100b0458800020037001e007800f1
:103e9000b04588000080fa00000006000000fa002b
:103ea0000080fa00000006000200fa000040eb006b
:103eb000004f780000000000514380004043800024
:103ec000808f5000fcff320050438000104f78007c
:103ed000504380000000e8005043880051438000b8
:103ee000308b2000808f500002003a002089200093
:103ef000504388001e4078000080fa000000060051
:103f00000200fa00004f7800000000001c000700cb
:103f10000004a2000004e000fcff3a0060438000bf
:103f20001e487800604380000000e800604388007d
:103f30006143800020892000808f500002003a00f9
:103f400010872000604388008d40a8000080fa00a0
:103f5000000006000000fa0051438000404380004a
:103f60000080680000f0a7000000ea000000ea00fe
:103f70004f00de00004078000080fa0000000600dc
:103f80000400fa007143800011079800614380002b
:103f90001e009000808f5000060031009e009000af
:103fa00060438000008050000000e900000f7800ae
:103fb000050037009e0090006043800000805000a4
:103fc0000002b000000f78001e00780000f0a7008b
:103fd0000000ea000000ea004f00de000040780028
:103fe0000080fa00000006000000fa006143800033
:103ff00070438000808f500009003a0071108000eb
:10400000001020000080600000f0a7000000ea001f
:104010000000ea004f00de00004078000100370099
:104020000040eb000080fa00000006000400fa00e7
:104030004143800011079800504380009e0090008b
:10404000808f5000060031009e0090005043800099
:10405000008050001002b000000f7800040037000c
:104060009e0090005043800000805000000f7800b8
:10407000f00f20009e007800808f50000200360074
:1040800000c0eb00020037001e00780000407800fe
:104090000080fa00000006000400fa00714380006e
:1040a00011079800614380001e009000808f50002f
:1040b000060031009e0090006043800000805000a8
:1040c0000000e900000f7800050037009e00900016
:1040d00060438000008050000002b000000f7800b4
:1040e000f00f20009e007800808f50000200360004
:1040f00000c0eb00020037001e007800004078008e
:104100000080fa00000006000800fa00200798006e
:1041100031079800c5ff07000080fb00000f780002
:104120003e0090009e0f500002003100be00900043
:10413000010f78000000eb0010079800090037001d
:1041400059ff0700ae009000804878002e009000d4
:104150000000e800200798001e0090000000e80022
:10416000100798001e0090009e0f5000f4ff3900c9
:104170001e0078000080fa00000006000800fa0027
:104180002007980031079800c3ff07000080fb005c
:10419000000f78003e0090009e0f5000020031009a
:1041a000be009000010f78000000eb00100798009f
:1041b000090037002e00900010407800ae009000fb
:1041c0008100e800210798004dff07001e009000c5
:1041d0000000e800100798001e0090009e0f50009d
:1041e000f4ff39001e0078000080fa00000006008d
:1041f0000400fa000000eb00000f78008bff0700be
:1042000020479800a4ff0700304798002e409000f8
:104210000080fb000000e0000400320011022000da
:10422000810f500003003200040037001e20a00060
:10423000040037001e00a000020037001e10a0007e
:10424000000000003e4090000080fb000000e00005
:104250000400320011022000810f500003003200e0
:10426000040037001e30a000020037001e40a000ee
:10427000000000001e0078000080fa000000060028
:104280000400fa0010079800514380001e009000bf
:10429000008f400002003700f1fd2f001e8f40000c
:1042a000308b20009e007800808f5000faff3e0087
:1042b0001e007800104078000080fa000000060020
:1042c0000000fa0059ff07000080fb000000e90031
:1042d0004f00de00004078000080fa000000060079
:1042e0000000fa006cff07000080fb000000e900fe
:1042f0004f00de00004078000080fa000000060059
:104300000000fa00701080000080fa000000060033
:104310000000fa0060ff07000004e0001000320017
:104320007143800060438000808f5000060036009b
:10433000704380008000780060438000008050005f
:104340000000e9000700370070438000800078001b
:1043500060438000008050000002b0000100370080
:104360000000eb000080fa00000006000000fa00e8
:104370002eff07000004e0001000320051438000cf
:1043800040438000808f500006003600504380007c
:104390008000780040438000008050000000e90069
:1043a00007003700504380008000780040438000c1
:1043b000008050000002b000010037000000eb0058
:1043c0000080fa00000006000000fa000de2a800dc
:1043d0000f42a8000080fa00000006000000fa006a
:1043e0000de2a9000f42a9000080fa0000000600bb
:020000040000fa
:1043f00068080000500000000000000032090000c2
:10440000120000000000000000080000680000002a
:1044100000000000140900001e000000020000005f
:10442000ffff020000040000030000000001000084
:104430000500ff00ff000600001200001800090040
:104440000021000024030000b80800003400000030
:104450000000000044090000060000000000000009
:10446000fa0f00000600000000000000ec08000049
:104470002800000002000000320032000058020054
:1044800058022800003c0000bc026400004c0400fc
:1044900030750200007800001400140000d00700fe
:1044a00002003c00000c000032000f000000000081
:1044b0000e0a000024000000020000000200680054
:1044c0000900ff00d60fdc000f00000002006800aa
:1044d0000900ff00e20fe8000f0000000200680082
:1044e0000900ff00ee0ff4000f0000004a09000071
:1044f0003c000000020000004b02960004de550064
:104500004b02f600e03d02007a041e00663d020008
:10451000f9ce54000e540e007a280000000000006e
:10452000440589000a253e004405c800ec840500c6
:10453000080b4a004f840500d3d581001581150072
:10454000b41c000000000000d60f00002400000092
:104550000000000086090000880000000200000042
:104560000100000000ac0900ad09ac0009ac090075
:10457000ac09ac00099c090000000000000000002c
:10458000000000000000000000000000000000002b
:1045900000000000000208000101d40009d5090054
:1045a000d409d40009d40900d409c40009000000ca
:1045b00000000000000000000000000000000000fb
:1045c00000000000000000000000020008020200dd
:1045d000fc09fd0009fc0900fc09fc0009fc0900bc
:1045e000ec090000000000000000000000000000d6
:1045f00000000000000000000000000000000000bb
:104600008609ae0009d60900000000000000000085
:104610000000000000000000720a0000020000001c
:1046200000000000540a00001a0000000200000010
:10463000686a6c00747a4c000000010000020000ff
:104640000400080000100000000020002b2d2300b3
:1046500030000000740a00000200000002000000a8
:10466000040000006e0a00000400000000000000ca
:10467000320a000022000000020000003031320047
:104680003334350036373800394142004344450061
:1046900046003000313233003435360037383900c7
:1046a000616263006465660000000000760a000035
:1046b000020000000200000001000000780a000073
:0c46c000020000000000000000000000ec
:020000040000fa
:1046cc000200fa005e88a900a0168000610060005c
:1046dc000000e0000f003a001e007800610060004e
:1046ec000000e0000b003a00b04080000000e00049
:1046fc0008003a001e0078000000a000000f7800af
:10470c0010002000b040880001012000403a290030
:10471c0097fe0700a0168000620060000000e00019
:10472c000f003a001e007800620060000000e000fc
:10473c000b003a00b04080000000e000080032009e
:10474c001e0078000010a000000f78001628ef0063
:10475c00a1002000503b290085fe07001828ef001f
:10476c001e007800610060000000e00007003200cd
:10477c00a0168000610060000000e0000300320021
:10478c001e0078000000a100000f78001e007800c9
:10479c00620060000000e00007003200a0168000fc
:1047ac00620060000000e000030032001e00780090
:1047bc000010a100000f78000080fa000000060035
:1047cc00881f7800891f78008a1f78008b1f78005b
:1047dc004400f8003400f8002005900008f02f0089
:1047ec000a40e10003003200480f2000aa018800b3
:1047fc0001003700080f20002802880000029000fa
:10480c00d00490008301e90003800800150000002b
:10481c00100490003103780030059000c005900022
:10482c00b80278009a00ca00048008000a00000050
:10483c005210c4009b80ca008707cd005290c40060
:10484c005290c500ba87cd005390c4008607cd00a6
:10485c009a00ca005290c500bb87cd000600ca0062
:10486c000900c8003200cd003400f9004400f90002
:10487c00cf0578004f057800cf0478004f047800fe
:10488c0000000600b0009000400190000000900075
:10489c0000800800010000008018eb000019eb00fc
:1048ac00000006000000fa0016000700e0a020003f
:1048bc00f4ff0700a0a12000f2ff070060a2200077
:1048cc00f0ff07001628ef005ea8a8005e48a800bd
:1048dc000100370000000000f0428000680060001a
:1048ec000000e00001003200eaf90700f04280000d
:1048fc00700060000000e000f6ff320070ff07005f
:10490c00f5ff37000000fa00dc22ef0000fc2f005e
:10491c00c0168800d022ef00d622ef00d202a800e9
:10492c00d222a800000128002008880000012000e5
:10493c00800888000621ef0084c0a9008cc0a90063
:10494c0011e1a80000012000900888000a21ef0066
:10495c0084e0a9008ce0a90000012800f008880080
:10496c0015fd07001b00070005000700a101200032
:10497c00003c2900fefd07000080fa000000060044
:10498c000000fa00a842a900a802a900a8c2a90028
:10499c00a8e2a900a902a900400e20000015880079
:1049ac00004120001015880090c0200020158800c0
:1049bc00501c200050158800200020003015880065
:1049cc008560a9008d60a800a1e2a8000080fa0013
:1049dc00000006000000fa00d421ef00205c20004b
:1049ec00200e880070772000400e8800a003200065
:1049fc00600e8800d021ef00d621ef00d821ef0007
:104a0c00da21ef00c621ef0000002800000e88001c
:104a1c0088e0a90090e0a8000080fa0000000600e1
:020000040000fa
:0200000401f009
:04000000f7bf000046
:020000040000fa
:0200000401f009
:04000400ff7f00007a
:020000040000fa
:0200000401f009
:04000800ffff0000f6
:020000040000fa
:0200000401f009
:04001400ffff0000ea
:020000040000fa
:0200000401f009
:04001800ffff0000e6
:00000001FF
