:020000040000fa
:080000000001040000000000f3
:020000040000fa
:040008006c04000084
:020000040000fa
:04000c00d801000017
:020000040000fa
:04001000e801000003
:020000040000fa
:04001400f8010000ef
:020000040000fa
:0400180008020000da
:020000040000fa
:04001c006c04000070
:020000040000fa
:040020006c0400006c
:020000040000fa
:040024006c04000068
:020000040000fa
:040028006c04000064
:020000040000fa
:04002c006c04000060
:020000040000fa
:040030006c0400005c
:020000040000fa
:040034005c03000069
:020000040000fa
:040038006c04000054
:020000040000fa
:04003c006c04000050
:020000040000fa
:040040009c0300001d
:020000040000fa
:04004400da030000db
:020000040000fa
:040048006c04000044
:020000040000fa
:04004c00740200003a
:020000040000fa
:040050001802000092
:020000040000fa
:04005400da020000cc
:020000040000fa
:040058006c04000034
:020000040000fa
:04005c006c04000030
:020000040000fa
:040060006c0400002c
:020000040000fa
:040064006c04000028
:020000040000fa
:040068006c04000024
:020000040000fa
:04006c006c04000020
:020000040000fa
:040070006c0400001c
:020000040000fa
:040074006c04000018
:020000040000fa
:040078006c04000014
:020000040000fa
:04007c006c04000010
:020000040000fa
:040080006c0400000c
:020000040000fa
:040084006c04000008
:020000040000fa
:040088006c04000004
:020000040000fa
:04008c006c04000000
:020000040000fa
:040090006c040000fc
:020000040000fa
:040094006c040000f8
:020000040000fa
:040098006c040000f4
:020000040000fa
:04009c006c040000f0
:020000040000fa
:0400a0006c040000ec
:020000040000fa
:0400a4006c040000e8
:020000040000fa
:0400a8006c040000e4
:020000040000fa
:0400ac006c040000e0
:020000040000fa
:0400b0006c040000dc
:020000040000fa
:0400b4006c040000d8
:020000040000fa
:0400b8006c040000d4
:020000040000fa
:0400bc006c040000d0
:020000040000fa
:0400c0006c040000cc
:020000040000fa
:0400c400180400001c
:020000040000fa
:0400c8006c040000c4
:020000040000fa
:0400cc006c040000c0
:020000040000fa
:0400d0006c040000bc
:020000040000fa
:0400d4006c040000b8
:020000040000fa
:0400d8006c040000b4
:020000040000fa
:040108006c04000083
:020000040000fa
:04010c00d801000016
:020000040000fa
:04011000e801000002
:020000040000fa
:04011400f8010000ee
:020000040000fa
:0401180008020000d9
:020000040000fa
:04011c006c0400006f
:020000040000fa
:040120006c0400006b
:020000040000fa
:040124006c04000067
:020000040000fa
:040128006c04000063
:020000040000fa
:04012c006c0400005f
:020000040000fa
:040130006c0400005b
:020000040000fa
:040134005c03000068
:020000040000fa
:040138006c04000053
:020000040000fa
:04013c006c0400004f
:020000040000fa
:040140009c0300001c
:020000040000fa
:04014400da030000da
:020000040000fa
:040148006c04000043
:020000040000fa
:04014c007402000039
:020000040000fa
:040150001802000091
:020000040000fa
:04015400da020000cb
:020000040000fa
:040158006c04000033
:020000040000fa
:04015c006c0400002f
:020000040000fa
:040160006c0400002b
:020000040000fa
:040164006c04000027
:020000040000fa
:040168006c04000023
:020000040000fa
:04016c006c0400001f
:020000040000fa
:040170006c0400001b
:020000040000fa
:040174006c04000017
:020000040000fa
:040178006c04000013
:020000040000fa
:04017c006c0400000f
:020000040000fa
:040180006c0400000b
:020000040000fa
:040184006c04000007
:020000040000fa
:040188006c04000003
:020000040000fa
:04018c006c040000ff
:020000040000fa
:040190006c040000fb
:020000040000fa
:040194006c040000f7
:020000040000fa
:040198006c040000f3
:020000040000fa
:04019c006c040000ef
:020000040000fa
:0401a0006c040000eb
:020000040000fa
:0401a4006c040000e7
:020000040000fa
:0401a8006c040000e3
:020000040000fa
:0401ac006c040000df
:020000040000fa
:0401b0006c040000db
:020000040000fa
:0401b4006c040000d7
:020000040000fa
:0401b8006c040000d3
:020000040000fa
:0401bc006c040000cf
:020000040000fa
:0401c0006c040000cb
:020000040000fa
:0401c400180400001b
:020000040000fa
:0401c8006c040000c3
:020000040000fa
:0401cc006c040000bf
:020000040000fa
:0401d0006c040000bb
:020000040000fa
:0401d4006c040000b7
:020000040000fa
:0401d8006c040000b3
:020000040000fa
:10020000efa020006efc20000e018800000000001e
:10021000000020000000e000020032000001200089
:1002200020028800140007005e0207000000e000c2
:1002300003003a00208b210001002000020037005b
:100240000000200001002000810f7000010032003a
:1002500014000700000020000000e000020032004f
:100260000000020000000000ea1902000000000087
:100270000040da000000fe004440a90040062000d3
:100280000000e0000300320000002000a001880010
:100290004440a800000006008a1f78008b1f7800e9
:1002a0000000060091018800800478000000eb0047
:1002b0001a003700e284440032a0b4009905ba0065
:1002c000e284440032a0b4009906ba00e2844400fb
:1002d00032a0b4000006eb00476fde00fd07b2005d
:1002e000636ce10003003a00ebff07000000eb0045
:1002f0000a003700606ce10004003a00005deb008a
:100300008b05e900fdff3e00040037006168e10055
:10031000010032000086eb000b00070019c7ba008d
:100320001905ba000e04e00003003a000a00e000dc
:10033000e0ff3a0000000600fe07b2009e018800c0
:100340008a047800f5ff3700395dba008b05e900b3
:100350000c003200295dba008b05e900080032006c
:100360000c00e00003003a00e284440032a0b40034
:10037000f5ff370019ddba008b05e900faff3a00f6
:100380008904e800e184440032a0b40000000600c3
:10039000000000000000000000000000000000005d
:1003a000000000000000000000000000000000004d
:1003b0003400f800881f780008002000a801880099
:1003c0004f0478000000fa000060fe00ffff3700d5
:1003d0003400f800881f780008002000a801880079
:1003e0004f0478000000fa000060fe00ffff3700b5
:1003f0003400f800881f780008002000a801880059
:100400004f0478000000fa000060fe00ffff370094
:100410003400f800881f780008002000a801880038
:100420004f0478000000fa000060fe00ffff370074
:100430003600f800809fbe00829fbe00849fbe00f1
:10044000869fbe000000fa00004780000000010007
:100450005146800040468000808f500002003a00e4
:100460008d40a900190037008540a9001000370011
:1004700050468000904078008180fb008110880009
:100480000000e8005046880051468000608d200042
:10049000808f500002003a00d08c20005046880027
:1004a0005146800040468000808f50000600320098
:1004b0007110800000202000008060000000e0003b
:1004c000ebff320001003700000000000080fa005e
:1004d0004f03be004f02be004f01be004f00be00e2
:1004e0003600f900004006003600f800809fbe008c
:1004f000829fbe00849fbe00869fbe000000fa005f
:1005000010478000000001008520a9001e00370070
:1005100020468000911080008140780001487800da
:1005200021468000e08d2000808f500009003200bd
:10053000204680008000e80030468000808f500018
:1005400004003200204680000000e80020468800b9
:100550000d00370021468000e08d2000808f500084
:1005600007003a0031468000608d2000808f5000e7
:1005700003003200608d2000204688000200370012
:1005800010c0b300cce8b7007010800061006000bc
:100590000000e000deff3a000080fa004f03be00da
:1005a0004f02be004f01be004f00be003600f900f2
:1005b000004006003600f800809fbe00829fbe000b
:1005c000849fbe00869fbe003400f800000020001b
:1005d000a00188000000fa008560a90001408000a9
:1005e00000148000008040000000d100004088001e
:1005f000004880000000e0000a003200004880004f
:100600000000e90000488800504180004040880018
:100610006041800050408800704180006040880048
:10062000060037002014800040408800301480000d
:100630005040880040148000604088007040800076
:100640008000780010148000008040000000d1007d
:1006500070408800b04080000000e00004003200dc
:100660000080e900e20f500005003e000200370064
:10067000d421ef0008003700b3030700060037005d
:10068000b0408000e40f5000020036001628ef0052
:1006900001003700000000000080fa003400f9007b
:1006a0004f03be004f02be004f01be004f00be0010
:1006b0003600f900004006003600f800809fbe00ba
:1006c000829fbe00849fbe00869fbe003400f8005b
:1006d00000002000a00188000000fa008460a9004a
:1006e000814080001246800010c0b300828f50000d
:1006f000010031000040eb008100e80081408800eb
:100700000004e00004003200e0a9280036010700e0
:100710008c60a9001628ef000080fa003400f90070
:100720004f03be004f02be004f01be004f00be008f
:100730003600f900004006003600f800809fbe0039
:10074000829fbe00849fbe00869fbe003400f800da
:1007500000002000a00188000000fa000621ef0040
:1007600084c0a900b0408000e30f500009003a00a7
:10077000204080000000e8002040880020408000e9
:10078000e50f5000010034000428ef0020408000f5
:10079000730507000080fa003400f9004f03be0023
:1007a0004f02be004f01be004f00be003600f900f0
:1007b000004006003600f800809fbe00829fbe0009
:1007c000849fbe00869fbe003400f8000000200019
:1007d000a00188000000fa0013e1a9000a21ef003f
:1007e0000621ef0084c0a90084e0a9008ce0a900e4
:1007f0001028ef00b0408000e30f500004003a00e2
:10080000804180002040880020408000540507007f
:100810000080fa003400f9004f03be004f02be0012
:100820004f01be004f00be003600f9000040060038
:10083000809fbe003400f80000002000a001880066
:100840000000fa0088e0a900e04080000000e80015
:10085000e0408800e1408000700c2000808f500054
:10086000020036001c28ef005e88a800d0408000ff
:100870000000e800d0408800d0408000f30f500016
:10088000020036001a28ef005e68a800f0408000e1
:100890000000e800f0408800f1408000f07c20007b
:1008a000808f5000020036001e28ef005ee8a8008e
:1008b000b0408000e20f500003003a00d0408000ba
:1008c00069004000d04088000080fa003400f90040
:1008d0004f00be00004006000040da000000fe00ad
:1008e0000a00fa0011002000b1bf9f00c0bf9f00a6
:1008f0006a805700d60207004fb897000080fa00c0
:10090000000006000a00fa00e20f500034003e002a
:1009100050508000e10f500003003200e20f500001
:1009200011003a000c003700c32020000300e00053
:1009300001003a000040da000c02e200020035003b
:100940001422ef000de2a8000f42ab000d003a00a8
:100950000f42a8000b003700632120000300e000d5
:1009600001003a000040da001602e2000200350001
:100970001e22ef0017e2a8001942ab0001003a0066
:100980001942a800820178000b0037003102fb00f9
:10099000e10f500004003a000f22ab00feff3a00c6
:1009a00084108800030037001922ab00feff3a00d4
:1009b000d41088008301e9000300e000f3ff3a004f
:1009c000e10f500003003a000f02ab00feff3200bf
:1009d0000b0037001902ab00feff320008003700a1
:1009e00033002000b3bf9f00c0bf9f00d1bf9f0056
:1009f000e2bf9f006a805700970207006fb9970017
:100a0000020078000080fa00000006000a00fa00e8
:100a100051002000b1bf9f00c0bf9f006a805700f7
:100a20008f0207005fb897000080fa000000060000
:100a3000889fbe0080047800605080000000e000c5
:100a400004003a000e0007000084eb000000e00004
:100a500008003500685080000900e0000500320001
:100a600009004400060007000000e00001003d000e
:100a70000084eb00080078004f04be000000060070
:100a8000800078000100e00003003a000000200030
:100a900060508800000005000080eb00020020008c
:100aa000828f500002003e00615088000000eb0081
:100ab000000006001e00fc00881f78008a1f7800d6
:100ac0004400f800080f200028028800000490006d
:100ad00010059000a000900030019000c00190002f
:100ae0000300ca000280ca000030cb001a00cd000b
:100af0004604c3000100ca004604c0001e04c00032
:100b00000605c0000100cd0021009800050d780009
:100b1000eaba9700052578004400f9004f057800ef
:100b20004f047800000006000e00fc00801f7800d3
:100b3000200090000008eb004f007800801f780034
:100b4000100090000018eb000018eb000008eb000c
:100b50004f007800000006001500fc004400f8007b
:100b6000020f200022028800910078003000ca00a5
:100b70003080ca000000cb002080ca000000cb00fb
:100b80003100cd004000ca000000cb000000cb00c7
:100b90000010cb003100cd001180cc004400f900e2
:100ba00000000600000005006022b80006022000d8
:100bb0000000d0008180d2000482d2008582d20061
:100bc0000000a0000202520083825a00030031009c
:100bd0000202420083824a000000a1000603e900ed
:100be000f3ff3a0000000600e19720006a000700ca
:100bf000800078000080eb000100e0000400350078
:100c0000e1972000a0002000020007004f80de00d6
:100c100000000600889fbe008a1f78000004be0006
:100c2000c900900069009000808f500005003900d5
:100c300009007800b70007008080eb000000e000aa
:100c400016003500084578004900900008587800e3
:100c5000c00498001900780000b8a30004003a000e
:100c600000a8a30007003200ea4f540005003a0034
:100c7000090078000d0007008080eb000000e00014
:100c800006003a0000c02000190060000200320097
:100c900049009000e00498008a80fb000100780081
:100ca0004f0578004f04be0000000600889fbe007c
:100cb0008a1f7800000478000800e0000d003a0068
:100cc000c89c2000700544008004eb0058007800a8
:100cd0000000e00004003200f4ff07000000e00024
:100ce00001003d008084eb008a0f5400f7ff3a00ba
:100cf0002500370000002200180060008004eb008f
:100d000021003200a80490000f00370009015100b3
:100d1000384090000000fb0089007800f9fe0700d1
:100d20000000e00007003c0028009000400498000c
:100d300060049800500c98001890a0008084eb008c
:100d4000110037008084440048019000828f5400d5
:100d5000eeff3900280090004004980098007800c9
:100d600002c020000281600001003a0038009000bb
:100d700001e8a3000200320060049800010037007f
:100d8000500c98008004eb00090078004f057800b3
:100d90004f04be0000000600889fbe008a9fbe0070
:100da00080047800010478002c003700c80090000f
:100db00068009000808f500004003900080078001f
:100dc000540007000000e00037003500004020001c
:100dd0001800600009003200a1002000090078001e
:100de00042000700800578000b00e000030032009d
:100df000618514000a854500040037000900780069
:100e000034000700000578008005eb0048009000e2
:100e1000e8009000808050008a8f5000020031006e
:100e2000010578008005eb000a0178008900780050
:100e300021000700480090000a004000400498008c
:100e40000b00e000040032000800780097ff070064
:100e50000000e00014003a008a8444001904e00015
:100e6000d2ff3a0000802000180060000600320027
:100e7000080078008dff0700800078000080eb00fc
:100e80000100e00009003a0001c0200098806000e5
:100e90000000eb000500320048009000600498005c
:100ea0000000eb00010037000080eb004f05be00a2
:100eb0004f04be00000006008001780002003700e9
:100ec000b15978000201e9000200e000fcff3a009d
:100ed0000000060080007800010178003104e00085
:100ee000fdff3a0000005100000006000001eb0089
:100ef00000027800b041780081cf510001003a0033
:100f0000040178000304e000f9ff3a0002007800d1
:100f100000000600889fbe008a1f78000004780049
:100f2000c8009000680190000000eb00828f500024
:100f30003c003900180078002200290002016000fe
:100f4000e20f510007003200012024000000e00001
:100f500001003d0001202000008c70000080eb00ab
:100f6000300037000200260002006000820f5000af
:100f700009003a0038009000808f500006003900c8
:100f80000800780049ff0700800078000080eb002f
:100f90000100e00023003a001805780000c020009e
:100fa0000000650018003a00a804900060022000cc
:100fb00008004000808f540013003a0000202000f9
:100fc000ef000700200498000000e00005003a0050
:100fd00029049800490498008904e800390498001d
:100fe000080037000a60a0000a0c7800400498004e
:100ff000012020008080400031049800400c9800bf
:10100000500c98000c000700280090005004980035
:10101000380090006004980000002600180c700052
:101020000000eb004f0578004f04be0000000600f2
:10103000e08b200061003700881f780068a0200046
:101040001804e00003003a00f9ff070020c0b300d5
:10105000004c78004f04780000000600889fbe0016
:10106000000478000800780010ff07008004780072
:1010700000042000180060000200320028009000e8
:101080005a0007000000eb00200498003840900050
:101090000004e000050035000000fb0010fe070022
:1010a0000000e000010032008084eb001810900086
:1010b0000000e0000800320054fe07000000e000dd
:1010c000010032008084eb001810900047000700f8
:1010d0000000eb00101498000008200018006000c9
:1010e000150032000001eb006000b800e39c200016
:1010f0000202d00063027a00880f520005003a0015
:101100000000400081804800008041000008eb00a2
:101110000600370061004000e08048000201e8005e
:10112000e80f5000e08f5800f0ff3a000800780008
:101130002e0007000e003700000c780000c0eb0006
:10114000304498006002200008004000200498000d
:101150004004980050049800400c980060049800e7
:10116000500c98007004980076004400000c980021
:10117000090078004f04be0000000600881f7800b8
:101180000004eb006140b800e2ff2f00f3ff2f00e6
:10119000b5000700c29d2000620078000000e0005a
:1011a00001003200adff07000804e800e80f54001a
:1011b000f4ff3a004f047800000006000100200010
:1011c0000100e00008003200010080000100e000a2
:1011d000050032008100e900010088008100d00094
:1011e0000200800000b17800000006000000e0006e
:1011f0002f003200c0017800e38f51002c00360030
:101200000308a3002a003a00215080000100e000fa
:1012100002003200810f50000400310011009800dc
:1012200020508800160037008200780011019000dd
:101230000200e00002003200800f5100faff390086
:101240001102780084824000850f50001800390098
:10125000808f520003003a008308420001007800aa
:10126000070037000200e000030032008301400065
:10127000830f51000e003900120098009000980072
:10128000900090000100e0000900320010014000d1
:10129000828f500006003a0022a020000009eb00d7
:1012a0001001780011084100910090001100980091
:1012b00000000600889fbe000004780011508000e6
:1012c0000100e00002003200010078000d0037004c
:1012d0002150800040a0200004003700910f5400ee
:1012e000250036000180e800910090000100e00038
:1012f000faff3a0010003700920f54001e0036002b
:101300000280e800100178000200e000faff3a00d5
:10131000110178002150800040a020000400370017
:10132000910f5400140036000180e80091009000f5
:10133000828f5000faff3a0049508000888f540095
:1013400001003100880478000900780036000700a9
:101350000000e00004003a00888f540005003200cd
:101360008904d100f5ff3700091878009fff0700b6
:10137000d2ff37000000eb004f04be000000060063
:10138000881f7800630440000800a1008000eb0083
:10139000800f540021003600e30f540001003e008e
:1013a0004800200008007800c2ff07008000eb0022
:1013b0000000e000190032009000780091017800f0
:1013c00064815100880f5100030031001101900029
:1013d0000208780007003700088140000208780002
:1013e0009101900013019800100178001109140078
:1013f00088087800100178000000eb000200e0008f
:1014000004003200920190000300e000010032006d
:101410000280e800105088008180e8000100780018
:101420004f04780000000600800078000000eb0008
:101430000100e00005003400010078007cfd070099
:10144000e10f400001003a000000eb000000060040
:1014500000c0da000000060000c0da00000006004c
:1014600000c0da0000000600020ab900001bb90043
:101470000200b80081004200810043000000060025
:020000040000fa
:10148000000000006400000000000000e80300000d
:10149000f4010000641900000a000000f4010000db
:1014a000f40100008813000000000000ffff0000ae
:1014b000000000001400000000000000007d00009b
:1014c00000000000ffff0000000000001e00000000
:1014d000020000001400000064000000840300000b
:1014e0000000000014000000534500004e530000af
:1014f0004f5200004c450000535300005f4900006c
:101500004e490000540d0000004d00004f540000f3
:101510004f520000204f0000464600000d00000022
:10152000494e000049540000205300005953000068
:10153000544500004d5300000d00000046410000de
:08154000494c00000d00000001
:020000040000fa
:101548000600fa00889fbe0020438000e50f500087
:101558000d003e0080932000004f880013002000fb
:10156800c2822000a1802000a09e2000d207070090
:1015780013002000e2822000c1802000609f20002c
:10158800cd07070002003700a0912000004f880017
:1015980013002000a282200081802000e09d20000e
:1015a800c507070070408000cf00de0000804000c3
:1015b8000080d10080007800304380000080400027
:1015c8002041880051418000204180000080500067
:1015d8006101b90000418000114180000200400013
:1015e8008380480000418800114188000041800044
:1015f800114180004309dd004d04de00080471003c
:10160800cd8cde000800780030438800204380003d
:10161800e50f500004003e0090408000e017b00045
:10162800100798000300370090408000c016b000f3
:1016380010079800204380008000eb0092002000f3
:1016480003002000820f5000838f5800a5013e0040
:101658000060010009003700320037005b003700e6
:1016680084003700bf003700e80037000f0137005b
:10167800150137004b0137005101370051418000f7
:1016880020418000808f500099013d002043800058
:101698000108800000014000208320000000410074
:1016a800010878000021ef00b9010700000f780059
:1016b8001e0090009e007800808f500002003100cc
:1016c8009e009000010f78001e0090001e00100080
:1016d80070088800300020008041880013e1a800cd
:1016e8008ce0a800a04080006f0160001e00780018
:1016f8006600b9008000780002014100e083200004
:101708000000410001087800a04080000000e800c7
:10171800a0408800204380000000e80020438800a3
:101728008a0137007141800020418000808f50007d
:10173800710134002043800001088000000140004e
:101748002083200000004100010878000021ef00fc
:101758008f010700000f78001e0090009e0078009f
:10176800808f5000020031001e019000020f7800a7
:101778001e0090001e001000700888004000200025
:101788008041880013e1a8008ce0a800a0408000f8
:101798006f0160001e0078006600b90080007800c4
:1017a80002014100e08320000000410001087800a8
:1017b800a04080000000e800a0408800204380008e
:1017c8000000e80020438800600137006141800084
:1017d80020418000808f500049013d002043800057
:1017e8000108800000014000208320000000410023
:1017f800010878000021ef0065010700000f78005c
:101808001e0090009e007800808f5000020031007a
:101818009e009000010f78001e0090001e0010002e
:1018280070088800500020008041880013e1a8005b
:101838008ce0a800a04080006f0160001e007800c6
:101848006600b9008000780002014100e0832000b2
:101858000000410001087800a04080000000e80076
:10186800a0408800204380000000e8002043880052
:10187800360137005141800020418000808f5000a0
:10188800210134002043800001088000000140004d
:101898002083200000004100010878000021ef00ab
:1018a8003b010700000f78001e0090009e007800a2
:1018b800808f5000020031001e019000020f780056
:1018c8001e0090001e001000700888003028ef00ed
:1018d80013e1a8008ce0a800a04080006f01600020
:1018e8001e0078006600b9008000780002014100ff
:1018f800e08320000000410001087800a04080003b
:101908000000e800a0408800204380000000e800b4
:1019180020438800f0428000620060000000e00080
:10192800fb00320060002000204388000621ef0001
:101938001e007800000040006008880084c0a900ec
:101948008cc0a8005e48a800a1e2a90050042000ad
:10195800501588008040200010158800a1e2a800da
:10196800fa0037007141800020418000808f5000cc
:10197800e9003d002043800001088000000140008c
:101988002083200000004100010878000021ef00ba
:10199800ff000700000f78001e0090009e007800ee
:1019a800808f5000020031009e009000010f7800e7
:1019b8001e0090001e001000700888001000200013
:1019c8008041880013e1a8008ce0a800a0408000b6
:1019d8006f0160001e0078006600b9008000780082
:1019e80002014100e0832000000041000108780066
:1019f800a04080000000e800a0408800204380004c
:101a08000000e80020438800d000370061418000d2
:101a180020418000808f5000c100340020438000a6
:101a280001088000000140002083200000004100e0
:101a3800010878000021ef00d5000700000f7800aa
:101a48001e0090009e007800808f50000200310038
:101a58001e019000020f78001e0090001e0010006a
:101a680070088800200020008041880013e1a80049
:101a78008ce0a800a04080006f0160001e00780084
:101a88006600b9008000780002014100e083200070
:101a98000000410001087800a04080000000e80034
:101aa800a04088006428ef00a8003700204080008c
:101ab800e20f50009c003a00204380000000e8003c
:101ac80020438800a1003700514180002041800058
:101ad800808f500096003d00a04080006f0060009d
:101ae8000108800000014000e08320000000410060
:101af800010878000021ef00a04080006f0060001e
:101b080080004000e08320000080400090007800c2
:101b1800a04080000000e9006f0060000001400064
:101b2800e0832000000041001000780000804000a1
:101b380020079800ae009000b0aa2a000008b8005c
:101b48004208de00600888002e009000c200de0017
:101b58001e009000808f5000020031000e21ef001f
:101b6800050037002e009000c200de001e00900025
:101b78000080500070088800a04080000000e80045
:101b8800a0408800400020008041880013e1a800a0
:101b98008ce0a800204380000000e8002043880073
:101ba8006a00370020408000e50f500062003a00cc
:101bb800204380000000e8002043880063003700cd
:101bc8005141800020418000808f50005c0034002b
:101bd800a04080006f006000010880000001400004
:101be800e083200000004100010878000021ef0098
:101bf800a04080006f00600080004000e08320006b
:101c08000080400090007800a04080000000e900bb
:101c18006f00600000014000e083200000004100e8
:101c2800100078000080400020079800ae00900067
:101c3800b0aa2a000008b8004208de006008880040
:101c48002e009000c200de001e009000808f500021
:101c5800020031000e21ef00050037002e00900031
:101c6800c200de001e00900000805000700888004e
:101c7800a04080000000e800a0408800100020007c
:101c88008041880013e1a8008ce0a80060002000d3
:101c980020438800f0428000620060000000e000fd
:101ca80029003a0040002000204388003028ef0037
:101cb800600880008000d1001e0090000080500065
:101cc800700888008cc0a900a1e2a900501c20005f
:101cd800501588000041200010158800a1e2a800d6
:101ce8001a0037006428ef000000000017003700d2
:101cf8000000000015003700000000001300370046
:101d08000000000011003700000000000f0037003d
:101d1800000000000d003700000000000b00370035
:101d2800000000000900370000000000070037002d
:101d38000000000005003700000000000300370025
:101d48000000000001003700000000004f04be0042
:101d58000080fa00000006000200fa00000f780078
:101d68001e00780080004000408f20000080400066
:101d780010007800a00e88001e007800304088000f
:101d880020448000004888000080fa000000060017
:101d98000a00fa006000b8001007980021079800b0
:101da8000000eb00000f78000d0037001e007800df
:101db8008000400020832000008040001000780050
:101dc8008000eb001e019000ae0190000200400070
:101dd8008380480010079800210798001e0fe8002c
:101de8001e007800e50f5000f0ff36001e0190003d
:101df800ae0190003207980043079800c200200007
:101e08003e029000ce0290001100090042aad800bc
:101e1800000f78001e0078000080fa00000006001d
:101e28000600fa005e68a900ca01a800b040800058
:101e3800e20f500009013200e20f500005003e0099
:101e48000000e00008003200e10f5000fa00320004
:101e580092013700e30f500007003200e40f5000f2
:101e6800620032008d013700d621ef00d821ef0043
:101e7800da21ef00910137003241800043418000b0
:101e8800304480008000eb0000015100818159003e
:101e9800404480008000eb00009ab90004027800fa
:101ea800028bb90086027800050242000013b800d0
:101eb8001607980027079800ae0390000702420013
:101ec80024079800823e20001e029000ae02900077
:101ed8001100090042aad800104888001048800064
:101ee800fe0f500002003600e00120001048880074
:101ef800104880000000e00002003a001228ef00bd
:101f08001e003700304480006101b8003041800075
:101f180041418000800f5100818f59001600310027
:101f2800104880006101b8003048800041488000b6
:101f3800009ab90004027800028bb9008602780082
:101f4800050242000013b8001607980027079800fa
:101f5800ae03900007024200240798008216200072
:101f68001e029000ae0290001100090042aad8009b
:101f780090408800010037001228ef0000468000da
:101f8800210320008080400020488000808f50007e
:101f980003003100504880000000e80050488800e5
:101fa80000468000e1fc2f0080804000204880002f
:101fb800808f500003003600504880000000e90080
:101fc8005048880050488000f40f50000200340048
:101fd8005e28a8000a29ef0050488000f40f40004e
:101fe80002003d005e28a9000a29ef000629ef003b
:101ff8000829ef000000eb00000f78000d00370003
:102008001e00780080004000e0832000008040002f
:10201800100078006101b800304880004148800015
:10202800020040008380480030488800414888000a
:102038001e0fe8001e007800ef0f5000f0ff36007a
:102048003048800041488000cd0add004300de00b2
:1020580000807200c308de003048880041488800cc
:1020680030488000414880000001780006002000c8
:10207800271c200016079800270798001e029000ca
:10208800ae0290001100090042aad8004300de0009
:1020980020488800f6458000204880008000eb003a
:1020a800820720000289b900020178006002b900a5
:1020b8008401780003014100830720000302b8006f
:1020c8001407980025079800ae029000050141000a
:1020d800220798001e019000ae019000110009002f
:1020e8004699d8008000eb003041880041418800c3
:1020f800f142800000022000008060000000e00043
:102108003200320011448000004080000088b9008d
:1021180000007800d04488003041800041418000b0
:1021280000007800c0448800208920005ffa07007a
:10213800b04480000000e00001003d009628ef0058
:10214800b144800070eb2700808f500005003400f8
:1021580040b52000b00e880070eb2700b04488001e
:1021680015003700b0448000cf80de0042b5200063
:102178000289b900020178006002b9008401780080
:102188000301410043b520000302b800140798007a
:1021980025079800ae02900005014100220798002b
:1021a80072eb27001e029000ae0290001100090099
:1021b80042aad800b00e8800b00e8000c00e880079
:1021c800b00e8000d00e8800bc003700f1428000bd
:1021d80000042000008060000000e000b40032002d
:1021e800004080008000eb0042b520000289b90061
:1021f800020178006002b9008401780003014100ff
:1022080043b520000300b8000101410082007800b6
:10221800f23f20000300200061fa07000000780068
:10222800b00e8800b00e8000c00e8800b00e80008e
:10223800d00e8800a1003700a3000700704080007e
:102248000080d1002041880020002000b040880094
:102258000a29ef005e28a90098003700c0408000d6
:10226800e10f500020003200e10f50000500390056
:10227800e20f500035003200e30f50003e003200fc
:102288008300370040438000b00e8800b00e800005
:10229800c00e8800b00e8000d00e88006043800019
:1022a8000000e90060438800604380000000e0000f
:1022b8000c003a00204080000000e8002040880020
:1022c80020408000e50f5000010034000428ef0092
:1022d80020408000a0fe0700c04080000000e80009
:1022e800c04088006c00370050438000b00e880062
:1022f800b00e8000c00e8800b00e8000d00e88009e
:10230800704380000000e90070438800704380003b
:102318000000e0000c003a00204080000000e800c7
:102328002040880020408000e50f50000100340064
:102338000428ef002040800087fe0700c04080008e
:102348000000e800c0408800530037000c29ef0067
:102358008043800070488800b0438000804888002f
:10236800b043800090488800c04080000000e8002a
:10237800c04088004800370061488000a2438000c0
:1023880010c0b300828f5000010031000040eb0004
:102398008100e800614888000004e000080032007d
:1023a8001828ef0030002000b040880013e1a90091
:1023b8008ce0a9008460a9008c60a8003300370075
:1023c80061488000d0438000800278001100090035
:1023d8008580d8008000fd000000e00003003a007e
:1023e800704880000000e80070488800704880004d
:1023f800b00e8800b00e8000c00e8800b00e8000bd
:10240800d00e880061488000e04380000003780017
:10241800110009008680d8008000fd000000e0005f
:1024280006003a00804880000000e90080488800e3
:10243800904880000000e9009048880081488000aa
:1024480010c0b3000100e000010034000040eb00c0
:102458008100e900814888000004e0000b00320098
:102468009048800080488800204080000000e800f4
:102478002040880020408000e50f50000100340013
:102488000428ef002040800033fe070002003700d8
:102498001828ef000000000008003700b040800056
:1024a800e40f5000040036001628ef000300370040
:1024b800000000000100370000000000ca01a90068
:1024c8000080fa00000006000400fa0010079800d7
:1024d80011528400e0448000808f500002003100d7
:1024e80010528400e044880011528400f0448000b7
:1024f800808f50000200310010528400f0448800a0
:102508001152840020458000808f50000200310065
:102518001052840020458800115284003045800004
:10252800808f50000200310010528400304588002e
:1025380011528400e0458000808f50000200310075
:1025480010528400e0458800315284000045800024
:10255800808f50000200310030528400004588000e
:102568003152840010458000808f500002003100f5
:102578003052840010458800415284004045800054
:10258800808f500002003600405284004045880089
:102598005152840040458000808f50000200310075
:1025a80050528400404588006152840050458000a4
:1025b800808f500002003600605284005045880029
:1025c8007152840050458000808f50000200310015
:1025d8007052840050458800815284006045800014
:1025e800808f5000020036008052840060458800c9
:1025f8009152840060458000808f500002003100b5
:102608009052840060458800f15284009045800013
:10261800808f500002003100f052840090458800fd
:10262800f1528400a0458000808f500002003100e4
:10263800f0528400a0458800f1528400b045800023
:10264800808f500002003100f0528400b0458800ad
:10265800b152840070458000808f50000200310024
:10266800b052840070458800d152840080458000b3
:10267800808f500002003100d052840080458800cd
:1026880011538400c0458000808f50000200310043
:1026980010538400c045880031538400d045800021
:1026a800808f50000200310030538400d0458800ec
:1026b80041538400f0458000808f500002003600ae
:1026c80040538400f045880051538400f045800051
:1026d800808f50000200310050538400f04588007c
:1026e8006153840000468000808f5000020036004d
:1026f80060538400004688007153840000468000bf
:10270800808f50000200310070538400004688001a
:102718008153840010468000808f500002003600ec
:10272800805384001046880091538400104680002e
:10273800808f5000020031009053840010468800ba
:10274800e04480008000eb0042b520000289b90017
:10275800020178006002b900840178000301410099
:1027680043b520000300b800010141008200780051
:10277800420620000300200009f907000000780045
:1027880040438800f04480008000eb0042b5200000
:102798000289b900020178006002b900840178005a
:1027a8000301410043b520000300b80001014100c6
:1027b800820078004206200003002000f8f8070095
:1027c8000000780050438800004580006a00b90086
:1027d8000000780060438800104580006a00b90056
:1027e8000000780070438800204580008000eb00de
:1027f80042b520000289b900020178006002b900e0
:10280800840178000301410043b520000300b800ab
:1028180001014100820078004206200003002000e8
:10282800dff807000000780080438800304580000a
:102838008000eb0042b520000289b900020178004f
:102848006002b900840178000301410043b520000b
:102858000300b80001014100820078004206200010
:1028680003002000cef8070000007800904388009d
:10287800404580006a00b90000007800a043880045
:10288800f04580006101b800504580008000eb00f1
:10289800009ab90004027800028bb9008602780019
:1028a800050242000010b8000102420084007800ce
:1028b8000001be0000d4200031002000b8f8070055
:1028c80000007800b0438800f04580006101b8003e
:1028d800604580008000eb00009ab900040278008f
:1028e800028bb90086027800050242000010b80089
:1028f80001024200840078000001be0000d42000dc
:1029080031002000a6f8070000007800c0438800c6
:10291800b1438000c0438000808f50000300310025
:10292800c04380000080e800b0438800a1438000d5
:10293800b2438000c04380000000510000017800cd
:10294800110009008280d8000000e800e0438800f8
:102958009143800080438000808f50000300310045
:10296800804380000080e80090438800a1438000f5
:1029780092438000804380000000510000017800ed
:10298800110009008280d8000000e800d0438800c8
:10299800f04580006101b8004318dd00cd10de006d
:1029a800810070004310dd000001be00000020001f
:1029b800819726007af80700f043880001448800d0
:1029c800704580004a00de000000e80010448800de
:1029d8008045800020448800c0458000304488003d
:1029e800d0458000404488007045800050448800ed
:1029f8009045800060448800a045800070448800ad
:102a0800b0458000804488004091200090448800b0
:102a1800a0ff2000a044880021892000c088200051
:102a28004bf807000000eb00000f780007003700a4
:102a38001e00780080004000a0ff200000804000b9
:102a48008000eb00010878001e0fe8001e007800e7
:102a5800e20f5000f6ff3e00b0408000e10f50004a
:102a680012003a00e04580008000eb0072eb27007e
:102a78000289b900020178006002b9008401780077
:102a88000301410073eb27000300b8000101410076
:102a980082007800420620000300200040f807006a
:102aa80000007800b0448800010037009628ef0045
:102ab8000000eb00000f78001a003700f045800096
:102ac8006101b800504580008000eb00009ab90011
:102ad80004027800028bb9008602780005024200e1
:102ae8000010b80001024200840078004309dd00ac
:102af800cd01de00830171004301dd0000002000ec
:102b08008197260026f80700800078001e007800cc
:102b180000014000e0832000000041000108780027
:102b28001e0fe8001e007800ef0f5000e3ff36008c
:102b38000080fa00000006000000fa008d40a9009d
:102b48008d20a90000f62d0060108800d0792f0094
:102b580070108800f00b2000a0108800d08c200096
:102b680050468800d08c200040468800608d2000a8
:102b780030468800608d200020468800cc68ef0031
:102b8800e05e210007000700c06021001400070074
:102b98008d20a8000de2a8000f42a8000080fa00ce
:102ba800000006000200fa00000f78001e007800fe
:102bb8000000e00003003a00e05e210000478800c2
:102bc800020037001e007800004788000080fa00e5
:102bd800000006000000fa000080fa00000006006d
:102be8000200fa00000f78001e0078000000e000e4
:102bf80003003a00c0602100104788000200370037
:102c08001e007800104788000080fa0000000600c7
:102c18000000fa000080fa00000006000200fa0036
:102c28000040eb00004f78000000000031468000b3
:102c380020468000808f5000fcff32003046800024
:102c4800104f7800304680000000e80030468800c9
:102c580031468000f08d2000808f500002003a003d
:102c6800608d2000304688001e4078000080fa0001
:102c7800000006000200fa00004f78000000000083
:102c88001c0007000004a2000004e000fcff3a005a
:102c9800404680001e487800404680000000e8005a
:102ca8004046880041468000608d2000808f50009b
:102cb80002003a00d08c2000404688008d40a800d1
:102cc8000080fa00000006000000fa00314680008b
:102cd800204680000080680000f0a7000000ea009d
:102ce8000000ea004f00de00004078000080fa0093
:102cf800000006000400fa00514680001107980001
:102d0800414680001e009000808f50000600310070
:102d18009e00900040468000008050000000e900be
:102d2800000f7800050037009e00900040468000a4
:102d38000080500068004000000f78001e007800f6
:102d480000f0a7000000ea000000ea004f00de00e3
:102d5800004078000080fa00000006000000fa0039
:102d68004146800050468000808f500009003a009c
:102d780071108000001020000080600000f0a700a3
:102d88000000ea000000ea004f00de000040780082
:102d9800010037000040eb000080fa000000060048
:102da8000400fa0021468000110798003046800090
:102db8009e009000808f5000060031009e00900019
:102dc800304680000080500069004000000f780005
:102dd800040037009e0090003046800000805000bc
:102de800000f7800f00f20009e007800808f5000c0
:102df8000200360000c0eb00020037001e00780019
:102e0800004078000080fa00000006000400fa0084
:102e18005146800011079800414680001e0090002e
:102e2800808f5000060031009e00900040468000d0
:102e3800008050000000e900000f7800050037000e
:102e48009e009000404680000080500068004000ce
:102e5800000f7800f00f20009e007800808f50004f
:102e68000200360000c0eb00020037001e007800a8
:102e7800004078000080fa00000006000800fa0010
:102e88002007980031079800c5ff07000080fb0065
:102e9800000f78003e0090009e0f500002003100a5
:102ea800be009000010f78000000eb0010079800aa
:102eb8000900370059ff0700ae00900080487800ed
:102ec8002e0090000000e800200798001e009000e7
:102ed8000000e800100798001e0090009e0f5000a8
:102ee800f4ff39001e0078000080fa000000060098
:102ef8000800fa002007980031079800c3ff070070
:102f08000080fb00000f78003e0090009e0f5000ec
:102f180002003100be009000010f78000000eb00b5
:102f280010079800090037002e0090001040780024
:102f3800ae0090008100e800210798004dff0700cf
:102f48001e0090000000e800100798001e00900086
:102f58009e0f5000f4ff39001e0078000080fa0030
:102f6800000006000400fa000000eb00000f7800e3
:102f78008bff070020479800a4ff07003047980000
:102f88002e4090000080fb000000e00003003200ab
:102f9800e90f500003003200040037001e20a00093
:102fa800040037001e00a000020037001e10a00019
:102fb800000000003e4090000080fb000000e000a0
:102fc80003003200e90f500003003200040037000c
:102fd8001e30a000020037001e40a00000000000c4
:102fe8001e0078000080fa00000006000400fa00c5
:102ff80010079800314680001e009000008f4000a6
:10300800020037009e007800698f5000f08d200084
:103018009e007800808f5000faff3e001e00780066
:10302800104078000080fa00000006000000fa0056
:103038005bff07000080fb000000e9004f00de0096
:10304800004078000080fa00000006000000fa0046
:103058006eff07000080fb000000e9004f00de0063
:10306800004078000080fa00000006000000fa0026
:10307800701080000080fa00000006000000fa00ce
:1030880062ff07000004e000100032005146800093
:1030980040468000808f5000060036005046800071
:1030a8008000780040468000008050000000e90061
:1030b80007003700504680008000780040468000b6
:1030c8000080500068004000010037000000eb005d
:1030d8000080fa00000006000000fa0030ff070038
:1030e8000004e000100032003146800020468000d5
:1030f800808f50000600360030468000800078003f
:1031080020468000008050000000e90007003700da
:103118003046800080007800204680000080500003
:1031280068004000010037000000eb000080fa0052
:10313800000006000000fa000de2a8000f42a800f7
:103148000080fa00000006000000fa000de2a90065
:0c3158000f42a9000080fa0000000600f1
:020000040000fa
:10316400c408000020000000000000000209000064
:1031740012000000000000000008000068000000c9
:1031840000000000e40800001e000000020000002f
:10319400ffff020000040000030000000001000023
:1031a4000500ff00ff0006000012000018000900df
:1031b400002100002403000068080000340000001f
:1031c40000000000140900000600000000000000d8
:1031d400fa0f000006000000000000009c08000038
:1031e40028000000020000003200320000580200f3
:1031f40058021e0000320000409c640000e80300f6
:1032040030750200007800001400140000bc0200b5
:1032140002003200000c000032000f000000000029
:10322400de09000024000000020000000200380053
:103234000900ff00d60fdc000f0000000200380078
:103244000900ff00e20fe8000f0000000200380050
:103254000900ff00ee0ff4000f0000001a0900003f
:103264003c000000020000004b02960004de550002
:103274004b02f600e03d02007a041e00663d0200a7
:10328400f9ce54000e540e007a280000000000000d
:10329400440589000a253e004405c800ec84050065
:1032a400080b4a004f840500d3d581001581150011
:1032b400b41c000000000000d60f00002400000031
:1032c4000000000056090000880000000200000011
:1032d40001000000007c09007d097c00097c0900d4
:1032e4007c097c00096c090000000000000000005b
:1032f40000000000000000000000000000000000ca
:1033040000000000000208000101a40009a5090052
:10331400a409a40009a40900a40994000900000058
:103324000000000000000000000000000000000099
:10333400000000000000000000000200080202007b
:10334400cc09cd0009cc0900cc09cc0009cc09007a
:10335400bc090000000000000000000000000000a4
:103364000000000000000000000000000000000059
:1033740056097e0009a609000000000000000000b4
:103384000000000000000000060a00000200000027
:1033940000000000080a0000020000000200000013
:1033a40004000000020a0000040000000000000005
:1033b4000a0a0000020000000200000001000000f0
:1033c4000c0a0000020000000000000000000000e1
:020000040000fa
:1033d4000000fa001d00070000a9280001f60700fc
:1033e400e09d200066000700a09e20006400070006
:1033f400609f2000620007001628ef005ea8a80066
:103404000100370000000000f04280006800600006
:103414000000e0000100320082fa0700f042800060
:10342400700060000000e000010032005c00070052
:10343400f142800000082000008060000000e000ed
:10344400f0ff32005ee8a900efff37000000fa0049
:10345400dc22ef0000fc2f00c0168800d022ef0011
:10346400d622ef00d202a800d222a8000001280030
:103474002008880000012000800888000621ef0051
:1034840084c0a9008cc0a90011e1a800000120009b
:10349400900888000a21ef0084e0a9008ce0a900cc
:1034a40000012800f0088800a4fd07008800070038
:1034b400730007000080fa0000000600881f7800ef
:1034c400891f78008a1f78008b1f78004400f80059
:1034d4003400f8002005900008f02f000a40e100b5
:1034e40003003200480f2000aa01880001003700c1
:1034f400080f20002802880000029000d0049000e9
:103504008301e90003800800150000001004900006
:103514003103780030059000c0059000b8027800af
:103524009a00ca00048008000a0000005210c40077
:103534009b80ca008707cd005290c4005290c500fa
:10354400ba87cd005390c4008607cd009a00ca0004
:103554005290c500bb87cd000600ca000900c80010
:103564003200cd003400f9004400f900cf057800a2
:103574004f057800cf0478004f047800000006005f
:10358400b00090004001900000009000008008000e
:10359400010000008018eb000019eb000000060099
:1035a4000200fa005e88a900a01680006100600095
:1035b4000000e0000b003a001e007800610060008b
:1035c4000000e00007003a001e0078000000a000a0
:1035d400000f780010002000b040880040a72800a9
:1035e40080f50700a0168000620060000000e00083
:1035f4000b003a001e007800620060000000e0004a
:1036040007003a001e0078000010a000000f7800a8
:103614001628ef0050a8280072f507001828ef00bc
:103624001e007800610060000000e0000700320026
:10363400a0168000610060000000e000030032007a
:103644001e0078000000a100000f78001e00780022
:10365400620060000000e00007003200a016800055
:10366400620060000000e000030032001e007800e9
:103674000010a100000f78000080fa00000006008e
:103684000000fa00a842a900a802a900a8c2a90043
:10369400a8e2a900a902a900400e20000015880094
:1036a400004120001015880090c0200020158800db
:1036b400501c200050158800a622ef008560a90048
:1036c4008d60a800a1e2a8000080fa0000000600b6
:1036d4000000fa00d421ef00205c2000200e8800b6
:1036e40070772000400e8800a0032000600e880040
:1036f400d021ef00d621ef00d821ef00da21ef002e
:10370400c621ef0000002800000e880088e0a90010
:0c37140090e0a8000080fa000000060011
:020000040000fa
:0200000401f009
:04000000f7bf000046
:020000040000fa
:0200000401f009
:04000400ff7f00007a
:020000040000fa
:0200000401f009
:04000800cfff000026
:020000040000fa
:0200000401f009
:04001400ffff0000ea
:020000040000fa
:0200000401f009
:04001800ffff0000e6
:00000001FF
